{
  "_format": "hh-sol-artifact-1",
  "contractName": "ERC1155Creator",
  "sourceName": "contracts/ERC1155Creator.sol",
  "abi": [
    {
      "inputs": [],
      "stateMutability": "nonpayable",
      "type": "constructor"
    },
    {
      "anonymous": false,
      "inputs": [
        {
          "indexed": true,
          "internalType": "address",
          "name": "account",
          "type": "address"
        },
        {
          "indexed": true,
          "internalType": "address",
          "name": "sender",
          "type": "address"
        }
      ],
      "name": "AdminApproved",
      "type": "event"
    },
    {
      "anonymous": false,
      "inputs": [
        {
          "indexed": true,
          "internalType": "address",
          "name": "account",
          "type": "address"
        },
        {
          "indexed": true,
          "internalType": "address",
          "name": "sender",
          "type": "address"
        }
      ],
      "name": "AdminRevoked",
      "type": "event"
    },
    {
      "anonymous": false,
      "inputs": [
        {
          "indexed": true,
          "internalType": "address",
          "name": "account",
          "type": "address"
        },
        {
          "indexed": true,
          "internalType": "address",
          "name": "operator",
          "type": "address"
        },
        {
          "indexed": false,
          "internalType": "bool",
          "name": "approved",
          "type": "bool"
        }
      ],
      "name": "ApprovalForAll",
      "type": "event"
    },
    {
      "anonymous": false,
      "inputs": [
        {
          "indexed": false,
          "internalType": "address payable[]",
          "name": "receivers",
          "type": "address[]"
        },
        {
          "indexed": false,
          "internalType": "uint256[]",
          "name": "basisPoints",
          "type": "uint256[]"
        }
      ],
      "name": "DefaultRoyaltiesUpdated",
      "type": "event"
    },
    {
      "anonymous": false,
      "inputs": [
        {
          "indexed": true,
          "internalType": "address",
          "name": "extension",
          "type": "address"
        },
        {
          "indexed": false,
          "internalType": "bool",
          "name": "enabled",
          "type": "bool"
        }
      ],
      "name": "ExtensionApproveTransferUpdated",
      "type": "event"
    },
    {
      "anonymous": false,
      "inputs": [
        {
          "indexed": true,
          "internalType": "address",
          "name": "extension",
          "type": "address"
        },
        {
          "indexed": true,
          "internalType": "address",
          "name": "sender",
          "type": "address"
        }
      ],
      "name": "ExtensionBlacklisted",
      "type": "event"
    },
    {
      "anonymous": false,
      "inputs": [
        {
          "indexed": true,
          "internalType": "address",
          "name": "extension",
          "type": "address"
        },
        {
          "indexed": true,
          "internalType": "address",
          "name": "sender",
          "type": "address"
        }
      ],
      "name": "ExtensionRegistered",
      "type": "event"
    },
    {
      "anonymous": false,
      "inputs": [
        {
          "indexed": true,
          "internalType": "address",
          "name": "extension",
          "type": "address"
        },
        {
          "indexed": false,
          "internalType": "address payable[]",
          "name": "receivers",
          "type": "address[]"
        },
        {
          "indexed": false,
          "internalType": "uint256[]",
          "name": "basisPoints",
          "type": "uint256[]"
        }
      ],
      "name": "ExtensionRoyaltiesUpdated",
      "type": "event"
    },
    {
      "anonymous": false,
      "inputs": [
        {
          "indexed": true,
          "internalType": "address",
          "name": "extension",
          "type": "address"
        },
        {
          "indexed": true,
          "internalType": "address",
          "name": "sender",
          "type": "address"
        }
      ],
      "name": "ExtensionUnregistered",
      "type": "event"
    },
    {
      "anonymous": false,
      "inputs": [
        {
          "indexed": true,
          "internalType": "address",
          "name": "extension",
          "type": "address"
        },
        {
          "indexed": true,
          "internalType": "address",
          "name": "permissions",
          "type": "address"
        },
        {
          "indexed": true,
          "internalType": "address",
          "name": "sender",
          "type": "address"
        }
      ],
      "name": "MintPermissionsUpdated",
      "type": "event"
    },
    {
      "anonymous": false,
      "inputs": [
        {
          "indexed": true,
          "internalType": "address",
          "name": "previousOwner",
          "type": "address"
        },
        {
          "indexed": true,
          "internalType": "address",
          "name": "newOwner",
          "type": "address"
        }
      ],
      "name": "OwnershipTransferred",
      "type": "event"
    },
    {
      "anonymous": false,
      "inputs": [
        {
          "indexed": true,
          "internalType": "uint256",
          "name": "tokenId",
          "type": "uint256"
        },
        {
          "indexed": false,
          "internalType": "address payable[]",
          "name": "receivers",
          "type": "address[]"
        },
        {
          "indexed": false,
          "internalType": "uint256[]",
          "name": "basisPoints",
          "type": "uint256[]"
        }
      ],
      "name": "RoyaltiesUpdated",
      "type": "event"
    },
    {
      "anonymous": false,
      "inputs": [
        {
          "indexed": true,
          "internalType": "address",
          "name": "operator",
          "type": "address"
        },
        {
          "indexed": true,
          "internalType": "address",
          "name": "from",
          "type": "address"
        },
        {
          "indexed": true,
          "internalType": "address",
          "name": "to",
          "type": "address"
        },
        {
          "indexed": false,
          "internalType": "uint256[]",
          "name": "ids",
          "type": "uint256[]"
        },
        {
          "indexed": false,
          "internalType": "uint256[]",
          "name": "values",
          "type": "uint256[]"
        }
      ],
      "name": "TransferBatch",
      "type": "event"
    },
    {
      "anonymous": false,
      "inputs": [
        {
          "indexed": true,
          "internalType": "address",
          "name": "operator",
          "type": "address"
        },
        {
          "indexed": true,
          "internalType": "address",
          "name": "from",
          "type": "address"
        },
        {
          "indexed": true,
          "internalType": "address",
          "name": "to",
          "type": "address"
        },
        {
          "indexed": false,
          "internalType": "uint256",
          "name": "id",
          "type": "uint256"
        },
        {
          "indexed": false,
          "internalType": "uint256",
          "name": "value",
          "type": "uint256"
        }
      ],
      "name": "TransferSingle",
      "type": "event"
    },
    {
      "anonymous": false,
      "inputs": [
        {
          "indexed": false,
          "internalType": "string",
          "name": "value",
          "type": "string"
        },
        {
          "indexed": true,
          "internalType": "uint256",
          "name": "id",
          "type": "uint256"
        }
      ],
      "name": "URI",
      "type": "event"
    },
    {
      "inputs": [
        {
          "internalType": "address",
          "name": "admin",
          "type": "address"
        }
      ],
      "name": "approveAdmin",
      "outputs": [],
      "stateMutability": "nonpayable",
      "type": "function"
    },
    {
      "inputs": [
        {
          "internalType": "address",
          "name": "account",
          "type": "address"
        },
        {
          "internalType": "uint256",
          "name": "id",
          "type": "uint256"
        }
      ],
      "name": "balanceOf",
      "outputs": [
        {
          "internalType": "uint256",
          "name": "",
          "type": "uint256"
        }
      ],
      "stateMutability": "view",
      "type": "function"
    },
    {
      "inputs": [
        {
          "internalType": "address[]",
          "name": "accounts",
          "type": "address[]"
        },
        {
          "internalType": "uint256[]",
          "name": "ids",
          "type": "uint256[]"
        }
      ],
      "name": "balanceOfBatch",
      "outputs": [
        {
          "internalType": "uint256[]",
          "name": "",
          "type": "uint256[]"
        }
      ],
      "stateMutability": "view",
      "type": "function"
    },
    {
      "inputs": [
        {
          "internalType": "address",
          "name": "extension",
          "type": "address"
        }
      ],
      "name": "blacklistExtension",
      "outputs": [],
      "stateMutability": "nonpayable",
      "type": "function"
    },
    {
      "inputs": [
        {
          "internalType": "address",
          "name": "account",
          "type": "address"
        },
        {
          "internalType": "uint256[]",
          "name": "tokenIds",
          "type": "uint256[]"
        },
        {
          "internalType": "uint256[]",
          "name": "amounts",
          "type": "uint256[]"
        }
      ],
      "name": "burn",
      "outputs": [],
      "stateMutability": "nonpayable",
      "type": "function"
    },
    {
      "inputs": [],
      "name": "getAdmins",
      "outputs": [
        {
          "internalType": "address[]",
          "name": "admins",
          "type": "address[]"
        }
      ],
      "stateMutability": "view",
      "type": "function"
    },
    {
      "inputs": [],
      "name": "getExtensions",
      "outputs": [
        {
          "internalType": "address[]",
          "name": "extensions",
          "type": "address[]"
        }
      ],
      "stateMutability": "view",
      "type": "function"
    },
    {
      "inputs": [
        {
          "internalType": "uint256",
          "name": "tokenId",
          "type": "uint256"
        }
      ],
      "name": "getFeeBps",
      "outputs": [
        {
          "internalType": "uint256[]",
          "name": "",
          "type": "uint256[]"
        }
      ],
      "stateMutability": "view",
      "type": "function"
    },
    {
      "inputs": [
        {
          "internalType": "uint256",
          "name": "tokenId",
          "type": "uint256"
        }
      ],
      "name": "getFeeRecipients",
      "outputs": [
        {
          "internalType": "address payable[]",
          "name": "",
          "type": "address[]"
        }
      ],
      "stateMutability": "view",
      "type": "function"
    },
    {
      "inputs": [
        {
          "internalType": "uint256",
          "name": "tokenId",
          "type": "uint256"
        }
      ],
      "name": "getFees",
      "outputs": [
        {
          "internalType": "address payable[]",
          "name": "",
          "type": "address[]"
        },
        {
          "internalType": "uint256[]",
          "name": "",
          "type": "uint256[]"
        }
      ],
      "stateMutability": "view",
      "type": "function"
    },
    {
      "inputs": [
        {
          "internalType": "uint256",
          "name": "tokenId",
          "type": "uint256"
        }
      ],
      "name": "getRoyalties",
      "outputs": [
        {
          "internalType": "address payable[]",
          "name": "",
          "type": "address[]"
        },
        {
          "internalType": "uint256[]",
          "name": "",
          "type": "uint256[]"
        }
      ],
      "stateMutability": "view",
      "type": "function"
    },
    {
      "inputs": [
        {
          "internalType": "address",
          "name": "admin",
          "type": "address"
        }
      ],
      "name": "isAdmin",
      "outputs": [
        {
          "internalType": "bool",
          "name": "",
          "type": "bool"
        }
      ],
      "stateMutability": "view",
      "type": "function"
    },
    {
      "inputs": [
        {
          "internalType": "address",
          "name": "account",
          "type": "address"
        },
        {
          "internalType": "address",
          "name": "operator",
          "type": "address"
        }
      ],
      "name": "isApprovedForAll",
      "outputs": [
        {
          "internalType": "bool",
          "name": "",
          "type": "bool"
        }
      ],
      "stateMutability": "view",
      "type": "function"
    },
    {
      "inputs": [
        {
          "internalType": "address[]",
          "name": "to",
          "type": "address[]"
        },
        {
          "internalType": "uint256[]",
          "name": "tokenIds",
          "type": "uint256[]"
        },
        {
          "internalType": "uint256[]",
          "name": "amounts",
          "type": "uint256[]"
        }
      ],
      "name": "mintBaseExisting",
      "outputs": [],
      "stateMutability": "nonpayable",
      "type": "function"
    },
    {
      "inputs": [
        {
          "internalType": "address[]",
          "name": "to",
          "type": "address[]"
        },
        {
          "internalType": "uint256[]",
          "name": "amounts",
          "type": "uint256[]"
        },
        {
          "internalType": "string[]",
          "name": "uris",
          "type": "string[]"
        }
      ],
      "name": "mintBaseNew",
      "outputs": [
        {
          "internalType": "uint256[]",
          "name": "",
          "type": "uint256[]"
        }
      ],
      "stateMutability": "nonpayable",
      "type": "function"
    },
    {
      "inputs": [
        {
          "internalType": "address[]",
          "name": "to",
          "type": "address[]"
        },
        {
          "internalType": "uint256[]",
          "name": "tokenIds",
          "type": "uint256[]"
        },
        {
          "internalType": "uint256[]",
          "name": "amounts",
          "type": "uint256[]"
        }
      ],
      "name": "mintExtensionExisting",
      "outputs": [],
      "stateMutability": "nonpayable",
      "type": "function"
    },
    {
      "inputs": [
        {
          "internalType": "address[]",
          "name": "to",
          "type": "address[]"
        },
        {
          "internalType": "uint256[]",
          "name": "amounts",
          "type": "uint256[]"
        },
        {
          "internalType": "string[]",
          "name": "uris",
          "type": "string[]"
        }
      ],
      "name": "mintExtensionNew",
      "outputs": [
        {
          "internalType": "uint256[]",
          "name": "tokenIds",
          "type": "uint256[]"
        }
      ],
      "stateMutability": "nonpayable",
      "type": "function"
    },
    {
      "inputs": [],
      "name": "owner",
      "outputs": [
        {
          "internalType": "address",
          "name": "",
          "type": "address"
        }
      ],
      "stateMutability": "view",
      "type": "function"
    },
    {
      "inputs": [
        {
          "internalType": "address",
          "name": "extension",
          "type": "address"
        },
        {
          "internalType": "string",
          "name": "baseURI",
          "type": "string"
        }
      ],
      "name": "registerExtension",
      "outputs": [],
      "stateMutability": "nonpayable",
      "type": "function"
    },
    {
      "inputs": [
        {
          "internalType": "address",
          "name": "extension",
          "type": "address"
        },
        {
          "internalType": "string",
          "name": "baseURI",
          "type": "string"
        },
        {
          "internalType": "bool",
          "name": "baseURIIdentical",
          "type": "bool"
        }
      ],
      "name": "registerExtension",
      "outputs": [],
      "stateMutability": "nonpayable",
      "type": "function"
    },
    {
      "inputs": [],
      "name": "renounceOwnership",
      "outputs": [],
      "stateMutability": "nonpayable",
      "type": "function"
    },
    {
      "inputs": [
        {
          "internalType": "address",
          "name": "admin",
          "type": "address"
        }
      ],
      "name": "revokeAdmin",
      "outputs": [],
      "stateMutability": "nonpayable",
      "type": "function"
    },
    {
      "inputs": [
        {
          "internalType": "uint256",
          "name": "tokenId",
          "type": "uint256"
        },
        {
          "internalType": "uint256",
          "name": "value",
          "type": "uint256"
        }
      ],
      "name": "royaltyInfo",
      "outputs": [
        {
          "internalType": "address",
          "name": "",
          "type": "address"
        },
        {
          "internalType": "uint256",
          "name": "",
          "type": "uint256"
        }
      ],
      "stateMutability": "view",
      "type": "function"
    },
    {
      "inputs": [
        {
          "internalType": "address",
          "name": "from",
          "type": "address"
        },
        {
          "internalType": "address",
          "name": "to",
          "type": "address"
        },
        {
          "internalType": "uint256[]",
          "name": "ids",
          "type": "uint256[]"
        },
        {
          "internalType": "uint256[]",
          "name": "amounts",
          "type": "uint256[]"
        },
        {
          "internalType": "bytes",
          "name": "data",
          "type": "bytes"
        }
      ],
      "name": "safeBatchTransferFrom",
      "outputs": [],
      "stateMutability": "nonpayable",
      "type": "function"
    },
    {
      "inputs": [
        {
          "internalType": "address",
          "name": "from",
          "type": "address"
        },
        {
          "internalType": "address",
          "name": "to",
          "type": "address"
        },
        {
          "internalType": "uint256",
          "name": "id",
          "type": "uint256"
        },
        {
          "internalType": "uint256",
          "name": "amount",
          "type": "uint256"
        },
        {
          "internalType": "bytes",
          "name": "data",
          "type": "bytes"
        }
      ],
      "name": "safeTransferFrom",
      "outputs": [],
      "stateMutability": "nonpayable",
      "type": "function"
    },
    {
      "inputs": [
        {
          "internalType": "address",
          "name": "operator",
          "type": "address"
        },
        {
          "internalType": "bool",
          "name": "approved",
          "type": "bool"
        }
      ],
      "name": "setApprovalForAll",
      "outputs": [],
      "stateMutability": "nonpayable",
      "type": "function"
    },
    {
      "inputs": [
        {
          "internalType": "bool",
          "name": "enabled",
          "type": "bool"
        }
      ],
      "name": "setApproveTransferExtension",
      "outputs": [],
      "stateMutability": "nonpayable",
      "type": "function"
    },
    {
      "inputs": [
        {
          "internalType": "string",
          "name": "uri_",
          "type": "string"
        }
      ],
      "name": "setBaseTokenURI",
      "outputs": [],
      "stateMutability": "nonpayable",
      "type": "function"
    },
    {
      "inputs": [
        {
          "internalType": "string",
          "name": "uri_",
          "type": "string"
        }
      ],
      "name": "setBaseTokenURIExtension",
      "outputs": [],
      "stateMutability": "nonpayable",
      "type": "function"
    },
    {
      "inputs": [
        {
          "internalType": "string",
          "name": "uri_",
          "type": "string"
        },
        {
          "internalType": "bool",
          "name": "identical",
          "type": "bool"
        }
      ],
      "name": "setBaseTokenURIExtension",
      "outputs": [],
      "stateMutability": "nonpayable",
      "type": "function"
    },
    {
      "inputs": [
        {
          "internalType": "address",
          "name": "extension",
          "type": "address"
        },
        {
          "internalType": "address",
          "name": "permissions",
          "type": "address"
        }
      ],
      "name": "setMintPermissions",
      "outputs": [],
      "stateMutability": "nonpayable",
      "type": "function"
    },
    {
      "inputs": [
        {
          "internalType": "uint256",
          "name": "tokenId",
          "type": "uint256"
        },
        {
          "internalType": "address payable[]",
          "name": "receivers",
          "type": "address[]"
        },
        {
          "internalType": "uint256[]",
          "name": "basisPoints",
          "type": "uint256[]"
        }
      ],
      "name": "setRoyalties",
      "outputs": [],
      "stateMutability": "nonpayable",
      "type": "function"
    },
    {
      "inputs": [
        {
          "internalType": "address payable[]",
          "name": "receivers",
          "type": "address[]"
        },
        {
          "internalType": "uint256[]",
          "name": "basisPoints",
          "type": "uint256[]"
        }
      ],
      "name": "setRoyalties",
      "outputs": [],
      "stateMutability": "nonpayable",
      "type": "function"
    },
    {
      "inputs": [
        {
          "internalType": "address",
          "name": "extension",
          "type": "address"
        },
        {
          "internalType": "address payable[]",
          "name": "receivers",
          "type": "address[]"
        },
        {
          "internalType": "uint256[]",
          "name": "basisPoints",
          "type": "uint256[]"
        }
      ],
      "name": "setRoyaltiesExtension",
      "outputs": [],
      "stateMutability": "nonpayable",
      "type": "function"
    },
    {
      "inputs": [
        {
          "internalType": "uint256",
          "name": "tokenId",
          "type": "uint256"
        },
        {
          "internalType": "string",
          "name": "uri_",
          "type": "string"
        }
      ],
      "name": "setTokenURI",
      "outputs": [],
      "stateMutability": "nonpayable",
      "type": "function"
    },
    {
      "inputs": [
        {
          "internalType": "uint256[]",
          "name": "tokenIds",
          "type": "uint256[]"
        },
        {
          "internalType": "string[]",
          "name": "uris",
          "type": "string[]"
        }
      ],
      "name": "setTokenURI",
      "outputs": [],
      "stateMutability": "nonpayable",
      "type": "function"
    },
    {
      "inputs": [
        {
          "internalType": "uint256[]",
          "name": "tokenIds",
          "type": "uint256[]"
        },
        {
          "internalType": "string[]",
          "name": "uris",
          "type": "string[]"
        }
      ],
      "name": "setTokenURIExtension",
      "outputs": [],
      "stateMutability": "nonpayable",
      "type": "function"
    },
    {
      "inputs": [
        {
          "internalType": "uint256",
          "name": "tokenId",
          "type": "uint256"
        },
        {
          "internalType": "string",
          "name": "uri_",
          "type": "string"
        }
      ],
      "name": "setTokenURIExtension",
      "outputs": [],
      "stateMutability": "nonpayable",
      "type": "function"
    },
    {
      "inputs": [
        {
          "internalType": "string",
          "name": "prefix",
          "type": "string"
        }
      ],
      "name": "setTokenURIPrefix",
      "outputs": [],
      "stateMutability": "nonpayable",
      "type": "function"
    },
    {
      "inputs": [
        {
          "internalType": "string",
          "name": "prefix",
          "type": "string"
        }
      ],
      "name": "setTokenURIPrefixExtension",
      "outputs": [],
      "stateMutability": "nonpayable",
      "type": "function"
    },
    {
      "inputs": [
        {
          "internalType": "bytes4",
          "name": "interfaceId",
          "type": "bytes4"
        }
      ],
      "name": "supportsInterface",
      "outputs": [
        {
          "internalType": "bool",
          "name": "",
          "type": "bool"
        }
      ],
      "stateMutability": "view",
      "type": "function"
    },
    {
      "inputs": [
        {
          "internalType": "uint256",
          "name": "tokenId",
          "type": "uint256"
        }
      ],
      "name": "tokenExtension",
      "outputs": [
        {
          "internalType": "address",
          "name": "",
          "type": "address"
        }
      ],
      "stateMutability": "view",
      "type": "function"
    },
    {
      "inputs": [
        {
          "internalType": "uint256",
          "name": "tokenId",
          "type": "uint256"
        }
      ],
      "name": "totalSupply",
      "outputs": [
        {
          "internalType": "uint256",
          "name": "",
          "type": "uint256"
        }
      ],
      "stateMutability": "view",
      "type": "function"
    },
    {
      "inputs": [
        {
          "internalType": "address",
          "name": "newOwner",
          "type": "address"
        }
      ],
      "name": "transferOwnership",
      "outputs": [],
      "stateMutability": "nonpayable",
      "type": "function"
    },
    {
      "inputs": [
        {
          "internalType": "address",
          "name": "extension",
          "type": "address"
        }
      ],
      "name": "unregisterExtension",
      "outputs": [],
      "stateMutability": "nonpayable",
      "type": "function"
    },
    {
      "inputs": [
        {
          "internalType": "uint256",
          "name": "tokenId",
          "type": "uint256"
        }
      ],
      "name": "uri",
      "outputs": [
        {
          "internalType": "string",
          "name": "",
          "type": "string"
        }
      ],
      "stateMutability": "view",
      "type": "function"
    }
  ],
  "bytecode": "0x608060405260006007553480156200001657600080fd5b5060405180602001604052806000815250620000476200003b6200006660201b60201c565b6200006e60201b60201c565b600180819055506200005f816200013260201b60201c565b5062000263565b600033905090565b60008060009054906101000a900473ffffffffffffffffffffffffffffffffffffffff169050816000806101000a81548173ffffffffffffffffffffffffffffffffffffffff021916908373ffffffffffffffffffffffffffffffffffffffff1602179055508173ffffffffffffffffffffffffffffffffffffffff168173ffffffffffffffffffffffffffffffffffffffff167f8be0079c531659141344cd1fd0a4f28419497f9722a3daafe3b4186f6b6457e060405160405180910390a35050565b80600690805190602001906200014a9291906200014e565b5050565b8280546200015c90620001fe565b90600052602060002090601f016020900481019282620001805760008555620001cc565b82601f106200019b57805160ff1916838001178555620001cc565b82800160010185558215620001cc579182015b82811115620001cb578251825591602001919060010190620001ae565b5b509050620001db9190620001df565b5090565b5b80821115620001fa576000816000905550600101620001e0565b5090565b600060028204905060018216806200021757607f821691505b602082108114156200022e576200022d62000234565b5b50919050565b7f4e487b7100000000000000000000000000000000000000000000000000000000600052602260045260246000fd5b61af7180620002736000396000f3fe608060405234801561001057600080fd5b50600436106102895760003560e01c80636d73e6691161015c578063b9c4d9fb116100ce578063e92a89f611610087578063e92a89f6146107e9578063e985e9c514610805578063f0cdc49914610835578063f242432a14610851578063f2fde38b1461086d578063feeb5a9a1461088957610289565b8063b9c4d9fb146106ef578063bb3bafd61461071f578063bd85b03914610750578063ce8aee9d14610780578063d5a06d4c1461079c578063e6c884dc146107cd57610289565b80638da5cb5b116101205780638da5cb5b1461064557806399e0dd7c14610663578063a22cb4651461067f578063aafb2d441461069b578063ac0c8cfa146106b7578063b0fe87c9146106d357610289565b80636d73e669146105b5578063715018a6146105d157806382dcc0c8146105db57806383b7db63146105f75780638c6e84721461061557610289565b80632eb2c2d6116102005780633e6134b8116101b95780633e6134b8146104f95780633f0f37f6146105155780634e1273f41461053157806361e5bc6b1461056157806366d1e9d01461057d578063695c96e61461059957610289565b80632eb2c2d61461044f57806330176e131461046b5780633071a0f91461048757806331ae450b146104a3578063332dd1ae146104c15780633db0f8ab146104dd57610289565b8063162094c411610252578063162094c41461036a57806320e4afe214610386578063239be317146103a257806324d7806c146103d25780632a55205a146104025780632d3456701461043357610289565b8062fdd58e1461028e57806301ffc9a7146102be57806302e7afb7146102ee5780630e89341c1461030a5780630ebd4c7f1461033a575b600080fd5b6102a860048036038101906102a39190618a8e565b6108b9565b6040516102b5919061a7ae565b60405180910390f35b6102d860048036038101906102d39190618db5565b610983565b6040516102e5919061a2f6565b60405180910390f35b610308600480360381019061030391906186d3565b6109b5565b005b610324600480360381019061031f9190618ee5565b610a51565b604051610331919061a32c565b60405180910390f35b610354600480360381019061034f9190618ee5565b610a63565b604051610361919061a29d565b60405180910390f35b610384600480360381019061037f9190618f97565b610ac4565b005b6103a0600480360381019061039b9190618f0e565b610b64565b005b6103bc60048036038101906103b79190618ee5565b610c08565b6040516103c99190619fef565b60405180910390f35b6103ec60048036038101906103e791906186d3565b610c1a565b6040516103f9919061a2f6565b60405180910390f35b61041c60048036038101906104179190618fef565b610c74565b60405161042a92919061a1be565b60405180910390f35b61044d600480360381019061044891906186d3565b610c8c565b005b61046960048036038101906104649190618738565b610d94565b005b61048560048036038101906104809190618e07565b610e35565b005b6104a1600480360381019061049c91906189ca565b610f16565b005b6104ab61100e565b6040516104b8919061a1e7565b60405180910390f35b6104db60048036038101906104d69190618c7e565b61113c565b005b6104f760048036038101906104f2919061890f565b6111df565b005b610513600480360381019061050e9190618e07565b6113af565b005b61052f600480360381019061052a9190618a22565b611412565b005b61054b60048036038101906105469190618c12565b61150a565b604051610558919061a29d565b60405180910390f35b61057b60048036038101906105769190618cf3565b6116bb565b005b61059760048036038101906105929190618e07565b61180d565b005b6105b360048036038101906105ae9190618b6e565b61186e565b005b6105cf60048036038101906105ca91906186d3565b611b2c565b005b6105d9611c33565b005b6105f560048036038101906105f09190618e4c565b611cbb565b005b6105ff611d1e565b60405161060c919061a1e7565b60405180910390f35b61062f600480360381019061062a9190618aca565b611e4c565b60405161063c919061a29d565b60405180910390f35b61064d611f9c565b60405161065a9190619fef565b60405180910390f35b61067d60048036038101906106789190618e07565b611fc5565b005b6106996004803603810190610694919061898e565b612063565b005b6106b560048036038101906106b09190618cf3565b6121e4565b005b6106d160048036038101906106cc9190618d63565b612373565b005b6106ed60048036038101906106e89190618886565b612538565b005b61070960048036038101906107049190618ee5565b6125dc565b604051610716919061a244565b60405180910390f35b61073960048036038101906107349190618ee5565b612673565b60405161074792919061a266565b60405180910390f35b61076a60048036038101906107659190618ee5565b612762565b604051610777919061a7ae565b60405180910390f35b61079a600480360381019061079591906186d3565b61277f565b005b6107b660048036038101906107b19190618ee5565b61281b565b6040516107c492919061a266565b60405180910390f35b6107e760048036038101906107e29190618b6e565b61290a565b005b61080360048036038101906107fe9190618f97565b612b8b565b005b61081f600480360381019061081a91906186fc565b612bee565b60405161082c919061a2f6565b60405180910390f35b61084f600480360381019061084a91906186fc565b612c82565b005b61086b600480360381019061086691906187f7565b612d20565b005b610887600480360381019061088291906186d3565b612dc1565b005b6108a3600480360381019061089e9190618aca565b612eb9565b6040516108b0919061a29d565b60405180910390f35b60008073ffffffffffffffffffffffffffffffffffffffff168373ffffffffffffffffffffffffffffffffffffffff16141561092a576040517f08c379a00000000000000000000000000000000000000000000000000000000081526004016109219061a3ce565b60405180910390fd5b6004600083815260200190815260200160002060008473ffffffffffffffffffffffffffffffffffffffff1673ffffffffffffffffffffffffffffffffffffffff16815260200190815260200160002054905092915050565b600061098e82613046565b8061099e575061099d826130c0565b5b806109ae57506109ad826131a2565b5b9050919050565b3373ffffffffffffffffffffffffffffffffffffffff166109d4611f9c565b73ffffffffffffffffffffffffffffffffffffffff161480610a065750610a0533600261321c90919063ffffffff16565b5b610a45576040517f08c379a0000000000000000000000000000000000000000000000000000000008152600401610a3c9061a68e565b60405180910390fd5b610a4e8161324c565b50565b6060610a5c826133cf565b9050919050565b6060610a6e8261384e565b805480602002602001604051908101604052809291908181526020018280548015610ab857602002820191906000526020600020905b815481526020019060010190808311610aa4575b50505050509050919050565b3373ffffffffffffffffffffffffffffffffffffffff16610ae3611f9c565b73ffffffffffffffffffffffffffffffffffffffff161480610b155750610b1433600261321c90919063ffffffff16565b5b610b54576040517f08c379a0000000000000000000000000000000000000000000000000000000008152600401610b4b9061a68e565b60405180910390fd5b610b5f8383836139c6565b505050565b3373ffffffffffffffffffffffffffffffffffffffff16610b83611f9c565b73ffffffffffffffffffffffffffffffffffffffff161480610bb55750610bb433600261321c90919063ffffffff16565b5b610bf4576040517f08c379a0000000000000000000000000000000000000000000000000000000008152600401610beb9061a68e565b60405180910390fd5b610c018585858585613a8f565b5050505050565b6000610c1382613c1b565b9050919050565b60008173ffffffffffffffffffffffffffffffffffffffff16610c3b611f9c565b73ffffffffffffffffffffffffffffffffffffffff161480610c6d5750610c6c82600261321c90919063ffffffff16565b5b9050919050565b600080610c818484613d1b565b915091509250929050565b610c94613e64565b73ffffffffffffffffffffffffffffffffffffffff16610cb2611f9c565b73ffffffffffffffffffffffffffffffffffffffff1614610d08576040517f08c379a0000000000000000000000000000000000000000000000000000000008152600401610cff9061a5ce565b60405180910390fd5b610d1c81600261321c90919063ffffffff16565b15610d91573373ffffffffffffffffffffffffffffffffffffffff168173ffffffffffffffffffffffffffffffffffffffff167f7c0c3c84c67c85fcac635147348bfe374c24a1a93d0366d1cfe9d8853cbf89d560405160405180910390a3610d8f816002613e6c90919063ffffffff16565b505b50565b610d9c613e64565b73ffffffffffffffffffffffffffffffffffffffff168573ffffffffffffffffffffffffffffffffffffffff161480610de25750610de185610ddc613e64565b612bee565b5b610e21576040517f08c379a0000000000000000000000000000000000000000000000000000000008152600401610e189061a50e565b60405180910390fd5b610e2e8585858585613e9c565b5050505050565b3373ffffffffffffffffffffffffffffffffffffffff16610e54611f9c565b73ffffffffffffffffffffffffffffffffffffffff161480610e865750610e8533600261321c90919063ffffffff16565b5b610ec5576040517f08c379a0000000000000000000000000000000000000000000000000000000008152600401610ebc9061a68e565b60405180910390fd5b610f1282828080601f016020809104026020016040519081016040528093929190818152602001838380828437600081840152601f19601f820116905080830192505050505050506141ff565b5050565b3373ffffffffffffffffffffffffffffffffffffffff16610f35611f9c565b73ffffffffffffffffffffffffffffffffffffffff161480610f675750610f6633600261321c90919063ffffffff16565b5b610fa6576040517f08c379a0000000000000000000000000000000000000000000000000000000008152600401610f9d9061a68e565b60405180910390fd5b82610fbb81600a61321c90919063ffffffff16565b15610ffb576040517f08c379a0000000000000000000000000000000000000000000000000000000008152600401610ff29061a46e565b60405180910390fd5b6110088484846000614256565b50505050565b606061101a6002614457565b67ffffffffffffffff811115611059577f4e487b7100000000000000000000000000000000000000000000000000000000600052604160045260246000fd5b6040519080825280602002602001820160405280156110875781602001602082028036833780820191505090505b50905060005b6110976002614457565b811015611138576110b281600261446c90919063ffffffff16565b8282815181106110eb577f4e487b7100000000000000000000000000000000000000000000000000000000600052603260045260246000fd5b602002602001019073ffffffffffffffffffffffffffffffffffffffff16908173ffffffffffffffffffffffffffffffffffffffff168152505080806111309061acbe565b91505061108d565b5090565b3373ffffffffffffffffffffffffffffffffffffffff1661115b611f9c565b73ffffffffffffffffffffffffffffffffffffffff16148061118d575061118c33600261321c90919063ffffffff16565b5b6111cc576040517f08c379a00000000000000000000000000000000000000000000000000000000081526004016111c39061a68e565b60405180910390fd5b6111d93085858585614486565b50505050565b60026001541415611225576040517f08c379a000000000000000000000000000000000000000000000000000000000815260040161121c9061a78e565b60405180910390fd5b60026001819055503373ffffffffffffffffffffffffffffffffffffffff168373ffffffffffffffffffffffffffffffffffffffff16148061126d575061126c8333612bee565b5b6112ac576040517f08c379a00000000000000000000000000000000000000000000000000000000081526004016112a39061a66e565b60405180910390fd5b80518251146112f0576040517f08c379a00000000000000000000000000000000000000000000000000000000081526004016112e79061a60e565b60405180910390fd5b60018251141561138c576113878383600081518110611338577f4e487b7100000000000000000000000000000000000000000000000000000000600052603260045260246000fd5b60200260200101518360008151811061137a577f4e487b7100000000000000000000000000000000000000000000000000000000600052603260045260246000fd5b60200260200101516146f7565b611398565b611397838383614731565b5b6113a3838383614809565b60018081905550505050565b6113c333600861321c90919063ffffffff16565b611402576040517f08c379a00000000000000000000000000000000000000000000000000000000081526004016113f99061a4ae565b60405180910390fd5b61140e82826000614aa0565b5050565b3373ffffffffffffffffffffffffffffffffffffffff16611431611f9c565b73ffffffffffffffffffffffffffffffffffffffff161480611463575061146233600261321c90919063ffffffff16565b5b6114a2576040517f08c379a00000000000000000000000000000000000000000000000000000000081526004016114999061a68e565b60405180910390fd5b836114b781600a61321c90919063ffffffff16565b156114f7576040517f08c379a00000000000000000000000000000000000000000000000000000000081526004016114ee9061a46e565b60405180910390fd5b61150385858585614256565b5050505050565b60608151835114611550576040517f08c379a00000000000000000000000000000000000000000000000000000000081526004016115479061a72e565b60405180910390fd5b6000835167ffffffffffffffff811115611593577f4e487b7100000000000000000000000000000000000000000000000000000000600052604160045260246000fd5b6040519080825280602002602001820160405280156115c15781602001602082028036833780820191505090505b50905060005b84518110156116b05761165a85828151811061160c577f4e487b7100000000000000000000000000000000000000000000000000000000600052603260045260246000fd5b602002602001015185838151811061164d577f4e487b7100000000000000000000000000000000000000000000000000000000600052603260045260246000fd5b60200260200101516108b9565b828281518110611693577f4e487b7100000000000000000000000000000000000000000000000000000000600052603260045260246000fd5b602002602001018181525050806116a99061acbe565b90506115c7565b508091505092915050565b6116cf33600861321c90919063ffffffff16565b61170e576040517f08c379a00000000000000000000000000000000000000000000000000000000081526004016117059061a4ae565b60405180910390fd5b81819050835114611754576040517f08c379a000000000000000000000000000000000000000000000000000000000815260040161174b9061a60e565b60405180910390fd5b60005b8351811015611807576117f484828151811061179c577f4e487b7100000000000000000000000000000000000000000000000000000000600052603260045260246000fd5b60200260200101518484848181106117dd577f4e487b7100000000000000000000000000000000000000000000000000000000600052603260045260246000fd5b90506020028101906117ef919061a7f2565b614b4b565b80806117ff9061acbe565b915050611757565b50505050565b61182133600861321c90919063ffffffff16565b611860576040517f08c379a00000000000000000000000000000000000000000000000000000000081526004016118579061a4ae565b60405180910390fd5b61186a8282614c14565b5050565b600260015414156118b4576040517f08c379a00000000000000000000000000000000000000000000000000000000081526004016118ab9061a78e565b60405180910390fd5b60026001819055503373ffffffffffffffffffffffffffffffffffffffff166118db611f9c565b73ffffffffffffffffffffffffffffffffffffffff16148061190d575061190c33600261321c90919063ffffffff16565b5b61194c576040517f08c379a00000000000000000000000000000000000000000000000000000000081526004016119439061a68e565b60405180910390fd5b60005b84849050811015611a4d573073ffffffffffffffffffffffffffffffffffffffff16600e60008787858181106119ae577f4e487b7100000000000000000000000000000000000000000000000000000000600052603260045260246000fd5b90506020020135815260200190815260200160002060009054906101000a900473ffffffffffffffffffffffffffffffffffffffff1673ffffffffffffffffffffffffffffffffffffffff1614611a3a576040517f08c379a0000000000000000000000000000000000000000000000000000000008152600401611a319061a6ee565b60405180910390fd5b8080611a459061acbe565b91505061194f565b50611b1d30878780806020026020016040519081016040528093929190818152602001838360200280828437600081840152601f19601f82011690508083019250505050505050868680806020026020016040519081016040528093929190818152602001838360200280828437600081840152601f19601f82011690508083019250505050505050858580806020026020016040519081016040528093929190818152602001838360200280828437600081840152601f19601f82011690508083019250505050505050614c67565b60018081905550505050505050565b611b34613e64565b73ffffffffffffffffffffffffffffffffffffffff16611b52611f9c565b73ffffffffffffffffffffffffffffffffffffffff1614611ba8576040517f08c379a0000000000000000000000000000000000000000000000000000000008152600401611b9f9061a5ce565b60405180910390fd5b611bbc81600261321c90919063ffffffff16565b611c30573373ffffffffffffffffffffffffffffffffffffffff168173ffffffffffffffffffffffffffffffffffffffff167f7e1a1a08d52e4ba0e21554733d66165fd5151f99460116223d9e3a608eec5cb160405160405180910390a3611c2e8160026153a690919063ffffffff16565b505b50565b611c3b613e64565b73ffffffffffffffffffffffffffffffffffffffff16611c59611f9c565b73ffffffffffffffffffffffffffffffffffffffff1614611caf576040517f08c379a0000000000000000000000000000000000000000000000000000000008152600401611ca69061a5ce565b60405180910390fd5b611cb960006153d6565b565b611ccf33600861321c90919063ffffffff16565b611d0e576040517f08c379a0000000000000000000000000000000000000000000000000000000008152600401611d059061a4ae565b60405180910390fd5b611d19838383614aa0565b505050565b6060611d2a6008614457565b67ffffffffffffffff811115611d69577f4e487b7100000000000000000000000000000000000000000000000000000000600052604160045260246000fd5b604051908082528060200260200182016040528015611d975781602001602082028036833780820191505090505b50905060005b611da76008614457565b811015611e4857611dc281600861446c90919063ffffffff16565b828281518110611dfb577f4e487b7100000000000000000000000000000000000000000000000000000000600052603260045260246000fd5b602002602001019073ffffffffffffffffffffffffffffffffffffffff16908173ffffffffffffffffffffffffffffffffffffffff16815250508080611e409061acbe565b915050611d9d565b5090565b606060026001541415611e94576040517f08c379a0000000000000000000000000000000000000000000000000000000008152600401611e8b9061a78e565b60405180910390fd5b6002600181905550611eb033600861321c90919063ffffffff16565b611eef576040517f08c379a0000000000000000000000000000000000000000000000000000000008152600401611ee69061a4ae565b60405180910390fd5b611f8933888880806020026020016040519081016040528093929190818152602001838360200280828437600081840152601f19601f82011690508083019250505050505050878780806020026020016040519081016040528093929190818152602001838360200280828437600081840152601f19601f82011690508083019250505050505050868690611f84919061ac35565b61549a565b9050600180819055509695505050505050565b60008060009054906101000a900473ffffffffffffffffffffffffffffffffffffffff16905090565b3373ffffffffffffffffffffffffffffffffffffffff16611fe4611f9c565b73ffffffffffffffffffffffffffffffffffffffff161480612016575061201533600261321c90919063ffffffff16565b5b612055576040517f08c379a000000000000000000000000000000000000000000000000000000000815260040161204c9061a68e565b60405180910390fd5b61205f8282615d78565b5050565b8173ffffffffffffffffffffffffffffffffffffffff16612082613e64565b73ffffffffffffffffffffffffffffffffffffffff1614156120d9576040517f08c379a00000000000000000000000000000000000000000000000000000000081526004016120d09061a70e565b60405180910390fd5b80600560006120e6613e64565b73ffffffffffffffffffffffffffffffffffffffff1673ffffffffffffffffffffffffffffffffffffffff16815260200190815260200160002060008473ffffffffffffffffffffffffffffffffffffffff1673ffffffffffffffffffffffffffffffffffffffff16815260200190815260200160002060006101000a81548160ff0219169083151502179055508173ffffffffffffffffffffffffffffffffffffffff16612193613e64565b73ffffffffffffffffffffffffffffffffffffffff167f17307eab39ab6107e8899845ad3d59bd9653f200f220920489ca2b5937696c31836040516121d8919061a2f6565b60405180910390a35050565b3373ffffffffffffffffffffffffffffffffffffffff16612203611f9c565b73ffffffffffffffffffffffffffffffffffffffff161480612235575061223433600261321c90919063ffffffff16565b5b612274576040517f08c379a000000000000000000000000000000000000000000000000000000000815260040161226b9061a68e565b60405180910390fd5b818190508351146122ba576040517f08c379a00000000000000000000000000000000000000000000000000000000081526004016122b19061a60e565b60405180910390fd5b60005b835181101561236d5761235a848281518110612302577f4e487b7100000000000000000000000000000000000000000000000000000000600052603260045260246000fd5b6020026020010151848484818110612343577f4e487b7100000000000000000000000000000000000000000000000000000000600052603260045260246000fd5b9050602002810190612355919061a7f2565b6139c6565b80806123659061acbe565b9150506122bd565b50505050565b61238733600861321c90919063ffffffff16565b6123c6576040517f08c379a00000000000000000000000000000000000000000000000000000000081526004016123bd9061a4ae565b60405180910390fd5b8015806123f957506123f8337f93a80b1400000000000000000000000000000000000000000000000000000000615dcb565b5b612438576040517f08c379a000000000000000000000000000000000000000000000000000000000815260040161242f9061a4ce565b60405180910390fd5b801515600d60003373ffffffffffffffffffffffffffffffffffffffff1673ffffffffffffffffffffffffffffffffffffffff16815260200190815260200160002060009054906101000a900460ff161515146125355780600d60003373ffffffffffffffffffffffffffffffffffffffff1673ffffffffffffffffffffffffffffffffffffffff16815260200190815260200160002060006101000a81548160ff0219169083151502179055503373ffffffffffffffffffffffffffffffffffffffff167f072a7592283e2c2d1d56d21517ff6013325e0f55483f4828373ff4d98b0a1a368260405161252c919061a2f6565b60405180910390a25b50565b3373ffffffffffffffffffffffffffffffffffffffff16612557611f9c565b73ffffffffffffffffffffffffffffffffffffffff161480612589575061258833600261321c90919063ffffffff16565b5b6125c8576040517f08c379a00000000000000000000000000000000000000000000000000000000081526004016125bf9061a68e565b60405180910390fd5b6125d58585858585614486565b5050505050565b60606125e782615df0565b80548060200260200160405190810160405280929190818152602001828054801561266757602002820191906000526020600020905b8160009054906101000a900473ffffffffffffffffffffffffffffffffffffffff1673ffffffffffffffffffffffffffffffffffffffff168152602001906001019080831161261d575b50505050509050919050565b60608061267f83615f68565b8180548060200260200160405190810160405280929190818152602001828054801561270057602002820191906000526020600020905b8160009054906101000a900473ffffffffffffffffffffffffffffffffffffffff1673ffffffffffffffffffffffffffffffffffffffff16815260200190600101908083116126b6575b505050505091508080548060200260200160405190810160405280929190818152602001828054801561275257602002820191906000526020600020905b81548152602001906001019080831161273e575b5050505050905091509150915091565b600060176000838152602001908152602001600020549050919050565b3373ffffffffffffffffffffffffffffffffffffffff1661279e611f9c565b73ffffffffffffffffffffffffffffffffffffffff1614806127d057506127cf33600261321c90919063ffffffff16565b5b61280f576040517f08c379a00000000000000000000000000000000000000000000000000000000081526004016128069061a68e565b60405180910390fd5b61281881615f86565b50565b60608061282783615f68565b818054806020026020016040519081016040528092919081815260200182805480156128a857602002820191906000526020600020905b8160009054906101000a900473ffffffffffffffffffffffffffffffffffffffff1673ffffffffffffffffffffffffffffffffffffffff168152602001906001019080831161285e575b50505050509150808054806020026020016040519081016040528092919081815260200182805480156128fa57602002820191906000526020600020905b8154815260200190600101908083116128e6575b5050505050905091509150915091565b60026001541415612950576040517f08c379a00000000000000000000000000000000000000000000000000000000081526004016129479061a78e565b60405180910390fd5b600260018190555061296c33600861321c90919063ffffffff16565b6129ab576040517f08c379a00000000000000000000000000000000000000000000000000000000081526004016129a29061a4ae565b60405180910390fd5b60005b84849050811015612aac573373ffffffffffffffffffffffffffffffffffffffff16600e6000878785818110612a0d577f4e487b7100000000000000000000000000000000000000000000000000000000600052603260045260246000fd5b90506020020135815260200190815260200160002060009054906101000a900473ffffffffffffffffffffffffffffffffffffffff1673ffffffffffffffffffffffffffffffffffffffff1614612a99576040517f08c379a0000000000000000000000000000000000000000000000000000000008152600401612a909061a6ae565b60405180910390fd5b8080612aa49061acbe565b9150506129ae565b50612b7c33878780806020026020016040519081016040528093929190818152602001838360200280828437600081840152601f19601f82011690508083019250505050505050868680806020026020016040519081016040528093929190818152602001838360200280828437600081840152601f19601f82011690508083019250505050505050858580806020026020016040519081016040528093929190818152602001838360200280828437600081840152601f19601f82011690508083019250505050505050614c67565b60018081905550505050505050565b612b9f33600861321c90919063ffffffff16565b612bde576040517f08c379a0000000000000000000000000000000000000000000000000000000008152600401612bd59061a4ae565b60405180910390fd5b612be9838383614b4b565b505050565b6000600560008473ffffffffffffffffffffffffffffffffffffffff1673ffffffffffffffffffffffffffffffffffffffff16815260200190815260200160002060008373ffffffffffffffffffffffffffffffffffffffff1673ffffffffffffffffffffffffffffffffffffffff16815260200190815260200160002060009054906101000a900460ff16905092915050565b3373ffffffffffffffffffffffffffffffffffffffff16612ca1611f9c565b73ffffffffffffffffffffffffffffffffffffffff161480612cd35750612cd233600261321c90919063ffffffff16565b5b612d12576040517f08c379a0000000000000000000000000000000000000000000000000000000008152600401612d099061a68e565b60405180910390fd5b612d1c8282616012565b5050565b612d28613e64565b73ffffffffffffffffffffffffffffffffffffffff168573ffffffffffffffffffffffffffffffffffffffff161480612d6e5750612d6d85612d68613e64565b612bee565b5b612dad576040517f08c379a0000000000000000000000000000000000000000000000000000000008152600401612da49061a42e565b60405180910390fd5b612dba858585858561628b565b5050505050565b612dc9613e64565b73ffffffffffffffffffffffffffffffffffffffff16612de7611f9c565b73ffffffffffffffffffffffffffffffffffffffff1614612e3d576040517f08c379a0000000000000000000000000000000000000000000000000000000008152600401612e349061a5ce565b60405180910390fd5b600073ffffffffffffffffffffffffffffffffffffffff168173ffffffffffffffffffffffffffffffffffffffff161415612ead576040517f08c379a0000000000000000000000000000000000000000000000000000000008152600401612ea49061a3ee565b60405180910390fd5b612eb6816153d6565b50565b606060026001541415612f01576040517f08c379a0000000000000000000000000000000000000000000000000000000008152600401612ef89061a78e565b60405180910390fd5b60026001819055503373ffffffffffffffffffffffffffffffffffffffff16612f28611f9c565b73ffffffffffffffffffffffffffffffffffffffff161480612f5a5750612f5933600261321c90919063ffffffff16565b5b612f99576040517f08c379a0000000000000000000000000000000000000000000000000000000008152600401612f909061a68e565b60405180910390fd5b61303330888880806020026020016040519081016040528093929190818152602001838360200280828437600081840152601f19601f82011690508083019250505050505050878780806020026020016040519081016040528093929190818152602001838360200280828437600081840152601f19601f8201169050808301925050505050505086869061302e919061ac35565b61549a565b9050600180819055509695505050505050565b60007f7d248440000000000000000000000000000000000000000000000000000000007bffffffffffffffffffffffffffffffffffffffffffffffffffffffff1916827bffffffffffffffffffffffffffffffffffffffffffffffffffffffff191614806130b957506130b882616510565b5b9050919050565b60007fd9b67a26000000000000000000000000000000000000000000000000000000007bffffffffffffffffffffffffffffffffffffffffffffffffffffffff1916827bffffffffffffffffffffffffffffffffffffffffffffffffffffffff1916148061318b57507f0e89341c000000000000000000000000000000000000000000000000000000007bffffffffffffffffffffffffffffffffffffffffffffffffffffffff1916827bffffffffffffffffffffffffffffffffffffffffffffffffffffffff1916145b8061319b575061319a826131a2565b5b9050919050565b60007f553e757e000000000000000000000000000000000000000000000000000000007bffffffffffffffffffffffffffffffffffffffffffffffffffffffff1916827bffffffffffffffffffffffffffffffffffffffffffffffffffffffff191614806132155750613214826166c6565b5b9050919050565b6000613244836000018373ffffffffffffffffffffffffffffffffffffffff1660001b616730565b905092915050565b3073ffffffffffffffffffffffffffffffffffffffff168173ffffffffffffffffffffffffffffffffffffffff1614156132bb576040517f08c379a00000000000000000000000000000000000000000000000000000000081526004016132b29061a38e565b60405180910390fd5b6132cf81600861321c90919063ffffffff16565b15613344573373ffffffffffffffffffffffffffffffffffffffff168173ffffffffffffffffffffffffffffffffffffffff167fd19cf84cf0fec6bec9ddfa29c63adf83a55707c712f32c8285d6180a7890147960405160405180910390a3613342816008613e6c90919063ffffffff16565b505b61335881600a61321c90919063ffffffff16565b6133cc573373ffffffffffffffffffffffffffffffffffffffff168173ffffffffffffffffffffffffffffffffffffffff167f05ac7bc5a606cd92a63365f9fda244499b9add0526b22d99937b6bd88181059c60405160405180910390a36133ca81600a6153a690919063ffffffff16565b505b50565b60606000600e600084815260200190815260200160002060009054906101000a900473ffffffffffffffffffffffffffffffffffffffff16905061341d81600a61321c90919063ffffffff16565b1561345d576040517f08c379a00000000000000000000000000000000000000000000000000000000081526004016134549061a46e565b60405180910390fd5b600060126000858152602001908152602001600020805461347d9061ac8c565b9050146135f5576000601160008373ffffffffffffffffffffffffffffffffffffffff1673ffffffffffffffffffffffffffffffffffffffff16815260200190815260200160002080546134d09061ac8c565b90501461355157601160008273ffffffffffffffffffffffffffffffffffffffff1673ffffffffffffffffffffffffffffffffffffffff1681526020019081526020016000206012600085815260200190815260200160002060405160200161353a929190619fcb565b604051602081830303815290604052915050613849565b60126000848152602001908152602001600020805461356f9061ac8c565b80601f016020809104026020016040519081016040528092919081815260200182805461359b9061ac8c565b80156135e85780601f106135bd576101008083540402835291602001916135e8565b820191906000526020600020905b8154815290600101906020018083116135cb57829003601f168201915b5050505050915050613849565b61361f817fe9dc637500000000000000000000000000000000000000000000000000000000615dcb565b156136bc578073ffffffffffffffffffffffffffffffffffffffff1663e9dc637530856040518363ffffffff1660e01b815260040161365f92919061a1be565b60006040518083038186803b15801561367757600080fd5b505afa15801561368b573d6000803e3d6000fd5b505050506040513d6000823e3d601f19601f820116820180604052508101906136b49190618ea4565b915050613849565b601060008273ffffffffffffffffffffffffffffffffffffffff1673ffffffffffffffffffffffffffffffffffffffff16815260200190815260200160002060009054906101000a900460ff1661377d57600f60008273ffffffffffffffffffffffffffffffffffffffff1673ffffffffffffffffffffffffffffffffffffffff16815260200190815260200160002061375584616753565b604051602001613766929190619fa7565b604051602081830303815290604052915050613849565b600f60008273ffffffffffffffffffffffffffffffffffffffff1673ffffffffffffffffffffffffffffffffffffffff16815260200190815260200160002080546137c79061ac8c565b80601f01602080910402602001604051908101604052809291908181526020018280546137f39061ac8c565b80156138405780601f1061381557610100808354040283529160200191613840565b820191906000526020600020905b81548152906001019060200180831161382357829003601f168201915b50505050509150505b919050565b60008060166000848152602001908152602001600020805490501115613888576016600083815260200190815260200160002090506139c1565b600060146000600e600086815260200190815260200160002060009054906101000a900473ffffffffffffffffffffffffffffffffffffffff1673ffffffffffffffffffffffffffffffffffffffff1673ffffffffffffffffffffffffffffffffffffffff16815260200190815260200160002080549050111561397f5760146000600e600085815260200190815260200160002060009054906101000a900473ffffffffffffffffffffffffffffffffffffffff1673ffffffffffffffffffffffffffffffffffffffff1673ffffffffffffffffffffffffffffffffffffffff16815260200190815260200160002090506139c1565b601460003073ffffffffffffffffffffffffffffffffffffffff1673ffffffffffffffffffffffffffffffffffffffff16815260200190815260200160002090505b919050565b3073ffffffffffffffffffffffffffffffffffffffff16600e600085815260200190815260200160002060009054906101000a900473ffffffffffffffffffffffffffffffffffffffff1673ffffffffffffffffffffffffffffffffffffffff1614613a67576040517f08c379a0000000000000000000000000000000000000000000000000000000008152600401613a5e9061a48e565b60405180910390fd5b8181601260008681526020019081526020016000209190613a89929190617ff7565b50505050565b818190508484905014613ad7576040517f08c379a0000000000000000000000000000000000000000000000000000000008152600401613ace9061a60e565b60405180910390fd5b600080600090505b83839050811015613b4a57838382818110613b23577f4e487b7100000000000000000000000000000000000000000000000000000000600052603260045260246000fd5b9050602002013582613b35919061aa9a565b91508080613b429061acbe565b915050613adf565b506127108110613b8f576040517f08c379a0000000000000000000000000000000000000000000000000000000008152600401613b869061a62e565b60405180910390fd5b8484601560008981526020019081526020016000209190613bb192919061807d565b508282601660008981526020019081526020016000209190613bd492919061811d565b50857fabb46fe0761d77584bde75697647804ffd8113abd4d8d06bc664150395eccdee86868686604051613c0b949392919061a209565b60405180910390a2505050505050565b6000600e600083815260200190815260200160002060009054906101000a900473ffffffffffffffffffffffffffffffffffffffff1690503073ffffffffffffffffffffffffffffffffffffffff168173ffffffffffffffffffffffffffffffffffffffff161415613cc2576040517f08c379a0000000000000000000000000000000000000000000000000000000008152600401613cb99061a5ee565b60405180910390fd5b613cd681600a61321c90919063ffffffff16565b15613d16576040517f08c379a0000000000000000000000000000000000000000000000000000000008152600401613d0d9061a46e565b60405180910390fd5b919050565b6000806000613d2985615df0565b9050600181805490501115613d73576040517f08c379a0000000000000000000000000000000000000000000000000000000008152600401613d6a9061a52e565b60405180910390fd5b600081805490501415613d8d573060009250925050613e5d565b80600081548110613dc7577f4e487b7100000000000000000000000000000000000000000000000000000000600052603260045260246000fd5b9060005260206000200160009054906101000a900473ffffffffffffffffffffffffffffffffffffffff1661271085613dff8861384e565b600081548110613e38577f4e487b7100000000000000000000000000000000000000000000000000000000600052603260045260246000fd5b9060005260206000200154613e4d919061ab21565b613e57919061aaf0565b92509250505b9250929050565b600033905090565b6000613e94836000018373ffffffffffffffffffffffffffffffffffffffff1660001b616900565b905092915050565b8151835114613ee0576040517f08c379a0000000000000000000000000000000000000000000000000000000008152600401613ed79061a74e565b60405180910390fd5b600073ffffffffffffffffffffffffffffffffffffffff168473ffffffffffffffffffffffffffffffffffffffff161415613f50576040517f08c379a0000000000000000000000000000000000000000000000000000000008152600401613f479061a4ee565b60405180910390fd5b6000613f5a613e64565b9050613f6a818787878787616a86565b60005b845181101561416a576000858281518110613fb1577f4e487b7100000000000000000000000000000000000000000000000000000000600052603260045260246000fd5b602002602001015190506000858381518110613ff6577f4e487b7100000000000000000000000000000000000000000000000000000000600052603260045260246000fd5b6020026020010151905060006004600084815260200190815260200160002060008b73ffffffffffffffffffffffffffffffffffffffff1673ffffffffffffffffffffffffffffffffffffffff16815260200190815260200160002054905081811015614098576040517f08c379a000000000000000000000000000000000000000000000000000000000815260040161408f9061a56e565b60405180910390fd5b8181036004600085815260200190815260200160002060008c73ffffffffffffffffffffffffffffffffffffffff1673ffffffffffffffffffffffffffffffffffffffff16815260200190815260200160002081905550816004600085815260200190815260200160002060008b73ffffffffffffffffffffffffffffffffffffffff1673ffffffffffffffffffffffffffffffffffffffff168152602001908152602001600020600082825461414f919061aa9a565b92505081905550505050806141639061acbe565b9050613f6d565b508473ffffffffffffffffffffffffffffffffffffffff168673ffffffffffffffffffffffffffffffffffffffff168273ffffffffffffffffffffffffffffffffffffffff167f4a39dc06d4c0dbc64b70af90fd698a233a518aa5d07e595d983b8c0526c8f7fb87876040516141e192919061a2bf565b60405180910390a46141f7818787878787616a9a565b505050505050565b80600f60003073ffffffffffffffffffffffffffffffffffffffff1673ffffffffffffffffffffffffffffffffffffffff168152602001908152602001600020908051906020019061425292919061816a565b5050565b3073ffffffffffffffffffffffffffffffffffffffff168473ffffffffffffffffffffffffffffffffffffffff1614156142c5576040517f08c379a00000000000000000000000000000000000000000000000000000000081526004016142bc9061a6ce565b60405180910390fd5b6142e48473ffffffffffffffffffffffffffffffffffffffff16616c6a565b614323576040517f08c379a000000000000000000000000000000000000000000000000000000000815260040161431a9061a58e565b60405180910390fd5b61433784600861321c90919063ffffffff16565b614451578282600f60008773ffffffffffffffffffffffffffffffffffffffff1673ffffffffffffffffffffffffffffffffffffffff1681526020019081526020016000209190614389929190617ff7565b5080601060008673ffffffffffffffffffffffffffffffffffffffff1673ffffffffffffffffffffffffffffffffffffffff16815260200190815260200160002060006101000a81548160ff0219169083151502179055503373ffffffffffffffffffffffffffffffffffffffff168473ffffffffffffffffffffffffffffffffffffffff167fd8cb8ba4086944eabf43c5535b7712015e4d4c714b24bf812c040ea5b7a3e42a60405160405180910390a361444f8460086153a690919063ffffffff16565b505b50505050565b600061446582600001616c7d565b9050919050565b600061447b8360000183616c8e565b60001c905092915050565b8181905084849050146144ce576040517f08c379a00000000000000000000000000000000000000000000000000000000081526004016144c59061a60e565b60405180910390fd5b600080600090505b838390508110156145415783838281811061451a577f4e487b7100000000000000000000000000000000000000000000000000000000600052603260045260246000fd5b905060200201358261452c919061aa9a565b915080806145399061acbe565b9150506144d6565b506127108110614586576040517f08c379a000000000000000000000000000000000000000000000000000000000815260040161457d9061a62e565b60405180910390fd5b8484601360008973ffffffffffffffffffffffffffffffffffffffff1673ffffffffffffffffffffffffffffffffffffffff16815260200190815260200160002091906145d492919061807d565b508282601460008973ffffffffffffffffffffffffffffffffffffffff1673ffffffffffffffffffffffffffffffffffffffff168152602001908152602001600020919061462392919061811d565b503073ffffffffffffffffffffffffffffffffffffffff168673ffffffffffffffffffffffffffffffffffffffff16141561469a577f2b6849d5976d799a5b0ca4dfd6b40a3d7afe9ea72c091fa01a958594f9a2659b8585858560405161468d949392919061a209565b60405180910390a16146ef565b8573ffffffffffffffffffffffffffffffffffffffff167f535a93d2cb000582c0ebeaa9be4890ec6a287f98eb2df00c54c300612fd78d8f868686866040516146e6949392919061a209565b60405180910390a25b505050505050565b614702838383616cdf565b80601760008481526020019081526020016000206000828254614725919061ab7b565b92505081905550505050565b61473c838383616efe565b60005b825181101561480357818181518110614781577f4e487b7100000000000000000000000000000000000000000000000000000000600052603260045260246000fd5b6020026020010151601760008584815181106147c6577f4e487b7100000000000000000000000000000000000000000000000000000000600052603260045260246000fd5b6020026020010151815260200190815260200160002060008282546147eb919061ab7b565b92505081905550806147fc9061acbe565b905061473f565b50505050565b600082511161484d576040517f08c379a00000000000000000000000000000000000000000000000000000000081526004016148449061a60e565b60405180910390fd5b6000600e60008460008151811061488d577f4e487b7100000000000000000000000000000000000000000000000000000000600052603260045260246000fd5b6020026020010151815260200190815260200160002060009054906101000a900473ffffffffffffffffffffffffffffffffffffffff16905060005b83518110156149c6578173ffffffffffffffffffffffffffffffffffffffff16600e6000868481518110614926577f4e487b7100000000000000000000000000000000000000000000000000000000600052603260045260246000fd5b6020026020010151815260200190815260200160002060009054906101000a900473ffffffffffffffffffffffffffffffffffffffff1673ffffffffffffffffffffffffffffffffffffffff16146149b3576040517f08c379a00000000000000000000000000000000000000000000000000000000081526004016149aa9061a5ae565b60405180910390fd5b80806149be9061acbe565b9150506148c9565b503073ffffffffffffffffffffffffffffffffffffffff168173ffffffffffffffffffffffffffffffffffffffff1614614a9a57614a24817f7b8deca000000000000000000000000000000000000000000000000000000000615dcb565b15614a99578073ffffffffffffffffffffffffffffffffffffffff16637b8deca08585856040518463ffffffff1660e01b8152600401614a669392919061a179565b600060405180830381600087803b158015614a8057600080fd5b505af1158015614a94573d6000803e3d6000fd5b505050505b5b50505050565b8282600f60003373ffffffffffffffffffffffffffffffffffffffff1673ffffffffffffffffffffffffffffffffffffffff1681526020019081526020016000209190614aee929190617ff7565b5080601060003373ffffffffffffffffffffffffffffffffffffffff1673ffffffffffffffffffffffffffffffffffffffff16815260200190815260200160002060006101000a81548160ff021916908315150217905550505050565b3373ffffffffffffffffffffffffffffffffffffffff16600e600085815260200190815260200160002060009054906101000a900473ffffffffffffffffffffffffffffffffffffffff1673ffffffffffffffffffffffffffffffffffffffff1614614bec576040517f08c379a0000000000000000000000000000000000000000000000000000000008152600401614be39061a48e565b60405180910390fd5b8181601260008681526020019081526020016000209190614c0e929190617ff7565b50505050565b8181601160003373ffffffffffffffffffffffffffffffffffffffff1673ffffffffffffffffffffffffffffffffffffffff1681526020019081526020016000209190614c62929190617ff7565b505050565b3073ffffffffffffffffffffffffffffffffffffffff168473ffffffffffffffffffffffffffffffffffffffff1614614ca657614ca58383836171fd565b5b60018351148015614cb8575060018251145b8015614cc5575060018151145b15614e1157614e0c83600081518110614d07577f4e487b7100000000000000000000000000000000000000000000000000000000600052603260045260246000fd5b602002602001015183600081518110614d49577f4e487b7100000000000000000000000000000000000000000000000000000000600052603260045260246000fd5b602002602001015183600081518110614d8b577f4e487b7100000000000000000000000000000000000000000000000000000000600052603260045260246000fd5b6020026020010151600067ffffffffffffffff811115614dd4577f4e487b7100000000000000000000000000000000000000000000000000000000600052604160045260246000fd5b6040519080825280601f01601f191660200182016040528015614e065781602001600182028036833780820191505090505b50617366565b6153a0565b60018351148015614e23575080518251145b15614eed57614ee883600081518110614e65577f4e487b7100000000000000000000000000000000000000000000000000000000600052603260045260246000fd5b60200260200101518383600067ffffffffffffffff811115614eb0577f4e487b7100000000000000000000000000000000000000000000000000000000600052604160045260246000fd5b6040519080825280601f01601f191660200182016040528015614ee25781602001600182028036833780820191505090505b506173a2565b61539f565b60018251148015614eff575060018151145b1561506a5760005b835181101561506457615051848281518110614f4c577f4e487b7100000000000000000000000000000000000000000000000000000000600052603260045260246000fd5b602002602001015184600081518110614f8e577f4e487b7100000000000000000000000000000000000000000000000000000000600052603260045260246000fd5b602002602001015184600081518110614fd0577f4e487b7100000000000000000000000000000000000000000000000000000000600052603260045260246000fd5b6020026020010151600067ffffffffffffffff811115615019577f4e487b7100000000000000000000000000000000000000000000000000000000600052604160045260246000fd5b6040519080825280601f01601f19166020018201604052801561504b5781602001600182028036833780820191505090505b50617366565b808061505c9061acbe565b915050614f07565b5061539e565b6001825114801561507c575080518351145b156151e65760005b83518110156151e0576151cd8482815181106150c9577f4e487b7100000000000000000000000000000000000000000000000000000000600052603260045260246000fd5b60200260200101518460008151811061510b577f4e487b7100000000000000000000000000000000000000000000000000000000600052603260045260246000fd5b602002602001015184848151811061514c577f4e487b7100000000000000000000000000000000000000000000000000000000600052603260045260246000fd5b6020026020010151600067ffffffffffffffff811115615195577f4e487b7100000000000000000000000000000000000000000000000000000000600052604160045260246000fd5b6040519080825280601f01601f1916602001820160405280156151c75781602001600182028036833780820191505090505b50617366565b80806151d89061acbe565b915050615084565b5061539d565b815183511480156151f8575080518351145b156153615760005b835181101561535b57615348848281518110615245577f4e487b7100000000000000000000000000000000000000000000000000000000600052603260045260246000fd5b6020026020010151848381518110615286577f4e487b7100000000000000000000000000000000000000000000000000000000600052603260045260246000fd5b60200260200101518484815181106152c7577f4e487b7100000000000000000000000000000000000000000000000000000000600052603260045260246000fd5b6020026020010151600067ffffffffffffffff811115615310577f4e487b7100000000000000000000000000000000000000000000000000000000600052604160045260246000fd5b6040519080825280601f01601f1916602001820160405280156153425781602001600182028036833780820191505090505b50617366565b80806153539061acbe565b915050615200565b5061539c565b6040517f08c379a00000000000000000000000000000000000000000000000000000000081526004016153939061a60e565b60405180910390fd5b5b5b5b5b50505050565b60006153ce836000018373ffffffffffffffffffffffffffffffffffffffff1660001b61747c565b905092915050565b60008060009054906101000a900473ffffffffffffffffffffffffffffffffffffffff169050816000806101000a81548173ffffffffffffffffffffffffffffffffffffffff021916908373ffffffffffffffffffffffffffffffffffffffff1602179055508173ffffffffffffffffffffffffffffffffffffffff168173ffffffffffffffffffffffffffffffffffffffff167f8be0079c531659141344cd1fd0a4f28419497f9722a3daafe3b4186f6b6457e060405160405180910390a35050565b606060018451111561557b57600167ffffffffffffffff8111156154e7577f4e487b7100000000000000000000000000000000000000000000000000000000600052604160045260246000fd5b6040519080825280602002602001820160405280156155155781602001602082028036833780820191505090505b50905060018251111580156155375750600183511480615536575082518451145b5b615576576040517f08c379a000000000000000000000000000000000000000000000000000000000815260040161556d9061a60e565b60405180910390fd5b61563e565b825167ffffffffffffffff8111156155bc577f4e487b7100000000000000000000000000000000000000000000000000000000600052604160045260246000fd5b6040519080825280602002602001820160405280156155ea5781602001602082028036833780820191505090505b5090506000825114806155fe575081518351145b61563d576040517f08c379a00000000000000000000000000000000000000000000000000000000081526004016156349061a60e565b60405180910390fd5b5b60005b8151811015615711576007600081548092919061565d9061acbe565b919050555060075482828151811061569e577f4e487b7100000000000000000000000000000000000000000000000000000000600052603260045260246000fd5b60200260200101818152505085600e6000600754815260200190815260200160002060006101000a81548173ffffffffffffffffffffffffffffffffffffffff021916908373ffffffffffffffffffffffffffffffffffffffff16021790555080806157099061acbe565b915050615641565b503073ffffffffffffffffffffffffffffffffffffffff168573ffffffffffffffffffffffffffffffffffffffff1614615751576157508482856171fd565b5b60018451148015615763575060018151145b156158af576158aa846000815181106157a5577f4e487b7100000000000000000000000000000000000000000000000000000000600052603260045260246000fd5b6020026020010151826000815181106157e7577f4e487b7100000000000000000000000000000000000000000000000000000000600052603260045260246000fd5b602002602001015185600081518110615829577f4e487b7100000000000000000000000000000000000000000000000000000000600052603260045260246000fd5b6020026020010151600067ffffffffffffffff811115615872577f4e487b7100000000000000000000000000000000000000000000000000000000600052604160045260246000fd5b6040519080825280601f01601f1916602001820160405280156158a45781602001600182028036833780820191505090505b50617366565b615c51565b600184511115615b8f57600183511415615a295760005b8451811015615a2357615a1085828151811061590b577f4e487b7100000000000000000000000000000000000000000000000000000000600052603260045260246000fd5b60200260200101518360008151811061594d577f4e487b7100000000000000000000000000000000000000000000000000000000600052603260045260246000fd5b60200260200101518660008151811061598f577f4e487b7100000000000000000000000000000000000000000000000000000000600052603260045260246000fd5b6020026020010151600067ffffffffffffffff8111156159d8577f4e487b7100000000000000000000000000000000000000000000000000000000600052604160045260246000fd5b6040519080825280601f01601f191660200182016040528015615a0a5781602001600182028036833780820191505090505b50617366565b8080615a1b9061acbe565b9150506158c6565b50615b8a565b60005b8451811015615b8857615b75858281518110615a71577f4e487b7100000000000000000000000000000000000000000000000000000000600052603260045260246000fd5b602002602001015183600081518110615ab3577f4e487b7100000000000000000000000000000000000000000000000000000000600052603260045260246000fd5b6020026020010151868481518110615af4577f4e487b7100000000000000000000000000000000000000000000000000000000600052603260045260246000fd5b6020026020010151600067ffffffffffffffff811115615b3d577f4e487b7100000000000000000000000000000000000000000000000000000000600052604160045260246000fd5b6040519080825280601f01601f191660200182016040528015615b6f5781602001600182028036833780820191505090505b50617366565b8080615b809061acbe565b915050615a2c565b505b615c50565b615c4f84600081518110615bcc577f4e487b7100000000000000000000000000000000000000000000000000000000600052603260045260246000fd5b60200260200101518285600067ffffffffffffffff811115615c17577f4e487b7100000000000000000000000000000000000000000000000000000000600052604160045260246000fd5b6040519080825280601f01601f191660200182016040528015615c495781602001600182028036833780820191505090505b506173a2565b5b5b60005b8151811015615d6f57825181108015615cae57506000838281518110615ca3577f4e487b7100000000000000000000000000000000000000000000000000000000600052603260045260246000fd5b602002602001015151115b15615d5c57828181518110615cec577f4e487b7100000000000000000000000000000000000000000000000000000000600052603260045260246000fd5b602002602001015160126000848481518110615d31577f4e487b7100000000000000000000000000000000000000000000000000000000600052603260045260246000fd5b602002602001015181526020019081526020016000209080519060200190615d5a92919061816a565b505b8080615d679061acbe565b915050615c54565b50949350505050565b8181601160003073ffffffffffffffffffffffffffffffffffffffff1673ffffffffffffffffffffffffffffffffffffffff1681526020019081526020016000209190615dc6929190617ff7565b505050565b6000615dd6836174ec565b8015615de85750615de78383617539565b5b905092915050565b60008060156000848152602001908152602001600020805490501115615e2a57601560008381526020019081526020016000209050615f63565b600060136000600e600086815260200190815260200160002060009054906101000a900473ffffffffffffffffffffffffffffffffffffffff1673ffffffffffffffffffffffffffffffffffffffff1673ffffffffffffffffffffffffffffffffffffffff168152602001908152602001600020805490501115615f215760136000600e600085815260200190815260200160002060009054906101000a900473ffffffffffffffffffffffffffffffffffffffff1673ffffffffffffffffffffffffffffffffffffffff1673ffffffffffffffffffffffffffffffffffffffff1681526020019081526020016000209050615f63565b601360003073ffffffffffffffffffffffffffffffffffffffff1673ffffffffffffffffffffffffffffffffffffffff16815260200190815260200160002090505b919050565b600080615f7483615df0565b615f7d8461384e565b91509150915091565b615f9a81600861321c90919063ffffffff16565b1561600f573373ffffffffffffffffffffffffffffffffffffffff168173ffffffffffffffffffffffffffffffffffffffff167fd19cf84cf0fec6bec9ddfa29c63adf83a55707c712f32c8285d6180a7890147960405160405180910390a361600d816008613e6c90919063ffffffff16565b505b50565b61602682600861321c90919063ffffffff16565b616065576040517f08c379a000000000000000000000000000000000000000000000000000000000815260040161605c9061a44e565b60405180910390fd5b600073ffffffffffffffffffffffffffffffffffffffff168173ffffffffffffffffffffffffffffffffffffffff1614806160c657506160c5817ff1d4552e00000000000000000000000000000000000000000000000000000000615dcb565b5b616105576040517f08c379a00000000000000000000000000000000000000000000000000000000081526004016160fc9061a3ae565b60405180910390fd5b8073ffffffffffffffffffffffffffffffffffffffff16600c60008473ffffffffffffffffffffffffffffffffffffffff1673ffffffffffffffffffffffffffffffffffffffff16815260200190815260200160002060009054906101000a900473ffffffffffffffffffffffffffffffffffffffff1673ffffffffffffffffffffffffffffffffffffffff16146162875780600c60008473ffffffffffffffffffffffffffffffffffffffff1673ffffffffffffffffffffffffffffffffffffffff16815260200190815260200160002060006101000a81548173ffffffffffffffffffffffffffffffffffffffff021916908373ffffffffffffffffffffffffffffffffffffffff1602179055503373ffffffffffffffffffffffffffffffffffffffff168173ffffffffffffffffffffffffffffffffffffffff168373ffffffffffffffffffffffffffffffffffffffff167f6a835c4fcf7e0d398db3762332fdaa1471814ad39f1e2d6d0b3fdabf8efee3e060405160405180910390a45b5050565b600073ffffffffffffffffffffffffffffffffffffffff168473ffffffffffffffffffffffffffffffffffffffff1614156162fb576040517f08c379a00000000000000000000000000000000000000000000000000000000081526004016162f29061a4ee565b60405180910390fd5b6000616305613e64565b905061632581878761631688617664565b61631f88617664565b87616a86565b60006004600086815260200190815260200160002060008873ffffffffffffffffffffffffffffffffffffffff1673ffffffffffffffffffffffffffffffffffffffff168152602001908152602001600020549050838110156163bd576040517f08c379a00000000000000000000000000000000000000000000000000000000081526004016163b49061a56e565b60405180910390fd5b8381036004600087815260200190815260200160002060008973ffffffffffffffffffffffffffffffffffffffff1673ffffffffffffffffffffffffffffffffffffffff16815260200190815260200160002081905550836004600087815260200190815260200160002060008873ffffffffffffffffffffffffffffffffffffffff1673ffffffffffffffffffffffffffffffffffffffff1681526020019081526020016000206000828254616474919061aa9a565b925050819055508573ffffffffffffffffffffffffffffffffffffffff168773ffffffffffffffffffffffffffffffffffffffff168373ffffffffffffffffffffffffffffffffffffffff167fc3d58168c5ae7397731d063d5bbf3d657854427343f4c083240f7aacaa2d0f6288886040516164f192919061a7c9565b60405180910390a461650782888888888861772a565b50505050505050565b60007f28f10a21000000000000000000000000000000000000000000000000000000007bffffffffffffffffffffffffffffffffffffffffffffffffffffffff1916827bffffffffffffffffffffffffffffffffffffffffffffffffffffffff191614806165835750616582826130c0565b5b806165d2575063bb3bafd660e01b7bffffffffffffffffffffffffffffffffffffffffffffffffffffffff1916827bffffffffffffffffffffffffffffffffffffffffffffffffffffffff1916145b80616621575063b779958460e01b7bffffffffffffffffffffffffffffffffffffffffffffffffffffffff1916827bffffffffffffffffffffffffffffffffffffffffffffffffffffffff1916145b80616670575063d5a06d4c60e01b7bffffffffffffffffffffffffffffffffffffffffffffffffffffffff1916827bffffffffffffffffffffffffffffffffffffffffffffffffffffffff1916145b806166bf5750632a55205a60e01b7bffffffffffffffffffffffffffffffffffffffffffffffffffffffff1916827bffffffffffffffffffffffffffffffffffffffffffffffffffffffff1916145b9050919050565b60007f01ffc9a7000000000000000000000000000000000000000000000000000000007bffffffffffffffffffffffffffffffffffffffffffffffffffffffff1916827bffffffffffffffffffffffffffffffffffffffffffffffffffffffff1916149050919050565b600080836001016000848152602001908152602001600020541415905092915050565b6060600082141561679b576040518060400160405280600181526020017f300000000000000000000000000000000000000000000000000000000000000081525090506168fb565b600082905060005b600082146167cd5780806167b69061acbe565b915050600a826167c6919061aaf0565b91506167a3565b60008167ffffffffffffffff81111561680f577f4e487b7100000000000000000000000000000000000000000000000000000000600052604160045260246000fd5b6040519080825280601f01601f1916602001820160405280156168415781602001600182028036833780820191505090505b5090505b600085146168f45760018261685a919061ab7b565b9150600a85616869919061ad07565b6030616875919061aa9a565b60f81b8183815181106168b1577f4e487b7100000000000000000000000000000000000000000000000000000000600052603260045260246000fd5b60200101907effffffffffffffffffffffffffffffffffffffffffffffffffffffffffffff1916908160001a905350600a856168ed919061aaf0565b9450616845565b8093505050505b919050565b60008083600101600084815260200190815260200160002054905060008114616a7a576000600182616932919061ab7b565b905060006001866000018054905061694a919061ab7b565b9050818114616a05576000866000018281548110616991577f4e487b7100000000000000000000000000000000000000000000000000000000600052603260045260246000fd5b90600052602060002001549050808760000184815481106169db577f4e487b7100000000000000000000000000000000000000000000000000000000600052603260045260246000fd5b90600052602060002001819055508387600101600083815260200190815260200160002081905550505b85600001805480616a3f577f4e487b7100000000000000000000000000000000000000000000000000000000600052603160045260246000fd5b600190038181906000526020600020016000905590558560010160008681526020019081526020016000206000905560019350505050616a80565b60009150505b92915050565b616a92858585856178fa565b505050505050565b616ab98473ffffffffffffffffffffffffffffffffffffffff16617be2565b15616c62578373ffffffffffffffffffffffffffffffffffffffff1663bc197c8187878686866040518663ffffffff1660e01b8152600401616aff95949392919061a05d565b602060405180830381600087803b158015616b1957600080fd5b505af1925050508015616b4a57506040513d601f19601f82011682018060405250810190616b479190618dde565b60015b616bd957616b5661ae12565b80616b615750616b9e565b806040517f08c379a0000000000000000000000000000000000000000000000000000000008152600401616b95919061a32c565b60405180910390fd5b6040517f08c379a0000000000000000000000000000000000000000000000000000000008152600401616bd09061a34e565b60405180910390fd5b63bc197c8160e01b7bffffffffffffffffffffffffffffffffffffffffffffffffffffffff1916817bffffffffffffffffffffffffffffffffffffffffffffffffffffffff191614616c60576040517f08c379a0000000000000000000000000000000000000000000000000000000008152600401616c579061a36e565b60405180910390fd5b505b505050505050565b600080823b905060008111915050919050565b600081600001805490509050919050565b6000826000018281548110616ccc577f4e487b7100000000000000000000000000000000000000000000000000000000600052603260045260246000fd5b9060005260206000200154905092915050565b600073ffffffffffffffffffffffffffffffffffffffff168373ffffffffffffffffffffffffffffffffffffffff161415616d4f576040517f08c379a0000000000000000000000000000000000000000000000000000000008152600401616d469061a54e565b60405180910390fd5b6000616d59613e64565b9050616d8981856000616d6b87617664565b616d7487617664565b60405180602001604052806000815250616a86565b60006004600085815260200190815260200160002060008673ffffffffffffffffffffffffffffffffffffffff1673ffffffffffffffffffffffffffffffffffffffff16815260200190815260200160002054905082811015616e21576040517f08c379a0000000000000000000000000000000000000000000000000000000008152600401616e189061a40e565b60405180910390fd5b8281036004600086815260200190815260200160002060008773ffffffffffffffffffffffffffffffffffffffff1673ffffffffffffffffffffffffffffffffffffffff16815260200190815260200160002081905550600073ffffffffffffffffffffffffffffffffffffffff168573ffffffffffffffffffffffffffffffffffffffff168373ffffffffffffffffffffffffffffffffffffffff167fc3d58168c5ae7397731d063d5bbf3d657854427343f4c083240f7aacaa2d0f628787604051616eef92919061a7c9565b60405180910390a45050505050565b600073ffffffffffffffffffffffffffffffffffffffff168373ffffffffffffffffffffffffffffffffffffffff161415616f6e576040517f08c379a0000000000000000000000000000000000000000000000000000000008152600401616f659061a54e565b60405180910390fd5b8051825114616fb2576040517f08c379a0000000000000000000000000000000000000000000000000000000008152600401616fa99061a74e565b60405180910390fd5b6000616fbc613e64565b9050616fdc81856000868660405180602001604052806000815250616a86565b60005b8351811015617177576000848281518110617023577f4e487b7100000000000000000000000000000000000000000000000000000000600052603260045260246000fd5b602002602001015190506000848381518110617068577f4e487b7100000000000000000000000000000000000000000000000000000000600052603260045260246000fd5b6020026020010151905060006004600084815260200190815260200160002060008973ffffffffffffffffffffffffffffffffffffffff1673ffffffffffffffffffffffffffffffffffffffff1681526020019081526020016000205490508181101561710a576040517f08c379a00000000000000000000000000000000000000000000000000000000081526004016171019061a40e565b60405180910390fd5b8181036004600085815260200190815260200160002060008a73ffffffffffffffffffffffffffffffffffffffff1673ffffffffffffffffffffffffffffffffffffffff16815260200190815260200160002081905550505050808061716f9061acbe565b915050616fdf565b50600073ffffffffffffffffffffffffffffffffffffffff168473ffffffffffffffffffffffffffffffffffffffff168273ffffffffffffffffffffffffffffffffffffffff167f4a39dc06d4c0dbc64b70af90fd698a233a518aa5d07e595d983b8c0526c8f7fb86866040516171ef92919061a2bf565b60405180910390a450505050565b600073ffffffffffffffffffffffffffffffffffffffff16600c60003373ffffffffffffffffffffffffffffffffffffffff1673ffffffffffffffffffffffffffffffffffffffff16815260200190815260200160002060009054906101000a900473ffffffffffffffffffffffffffffffffffffffff1673ffffffffffffffffffffffffffffffffffffffff161461736157600c60003373ffffffffffffffffffffffffffffffffffffffff1673ffffffffffffffffffffffffffffffffffffffff16815260200190815260200160002060009054906101000a900473ffffffffffffffffffffffffffffffffffffffff1673ffffffffffffffffffffffffffffffffffffffff1663f1d4552e338585856040518563ffffffff1660e01b815260040161732e949392919061a11f565b600060405180830381600087803b15801561734857600080fd5b505af115801561735c573d6000803e3d6000fd5b505050505b505050565b61737284848484617bf5565b81601760008581526020019081526020016000206000828254617395919061aa9a565b9250508190555050505050565b6173ae84848484617d8c565b60005b8351811015617475578281815181106173f3577f4e487b7100000000000000000000000000000000000000000000000000000000600052603260045260246000fd5b602002602001015160176000868481518110617438577f4e487b7100000000000000000000000000000000000000000000000000000000600052603260045260246000fd5b60200260200101518152602001908152602001600020600082825461745d919061aa9a565b925050819055508061746e9061acbe565b90506173b1565b5050505050565b60006174888383616730565b6174e15782600001829080600181540180825580915050600190039060005260206000200160009091909190915055826000018054905083600101600084815260200190815260200160002081905550600190506174e6565b600090505b92915050565b6000617518827f01ffc9a700000000000000000000000000000000000000000000000000000000617539565b801561753257506175308263ffffffff60e01b617539565b155b9050919050565b6000806301ffc9a760e01b83604051602401617555919061a311565b604051602081830303815290604052907bffffffffffffffffffffffffffffffffffffffffffffffffffffffff19166020820180517bffffffffffffffffffffffffffffffffffffffffffffffffffffffff838183161783525050505090506000808573ffffffffffffffffffffffffffffffffffffffff16617530846040516175df9190619f90565b6000604051808303818686fa925050503d806000811461761b576040519150601f19603f3d011682016040523d82523d6000602084013e617620565b606091505b509150915060208151101561763b576000935050505061765e565b8180156176585750808060200190518101906176579190618d8c565b5b93505050505b92915050565b60606000600167ffffffffffffffff8111156176a9577f4e487b7100000000000000000000000000000000000000000000000000000000600052604160045260246000fd5b6040519080825280602002602001820160405280156176d75781602001602082028036833780820191505090505b5090508281600081518110617715577f4e487b7100000000000000000000000000000000000000000000000000000000600052603260045260246000fd5b60200260200101818152505080915050919050565b6177498473ffffffffffffffffffffffffffffffffffffffff16617be2565b156178f2578373ffffffffffffffffffffffffffffffffffffffff1663f23a6e6187878686866040518663ffffffff1660e01b815260040161778f95949392919061a0c5565b602060405180830381600087803b1580156177a957600080fd5b505af19250505080156177da57506040513d601f19601f820116820180604052508101906177d79190618dde565b60015b617869576177e661ae12565b806177f1575061782e565b806040517f08c379a0000000000000000000000000000000000000000000000000000000008152600401617825919061a32c565b60405180910390fd5b6040517f08c379a00000000000000000000000000000000000000000000000000000000081526004016178609061a34e565b60405180910390fd5b63f23a6e6160e01b7bffffffffffffffffffffffffffffffffffffffffffffffffffffffff1916817bffffffffffffffffffffffffffffffffffffffffffffffffffffffff1916146178f0576040517f08c379a00000000000000000000000000000000000000000000000000000000081526004016178e79061a36e565b60405180910390fd5b505b505050505050565b600082511161793e576040517f08c379a00000000000000000000000000000000000000000000000000000000081526004016179359061a60e565b60405180910390fd5b6000600e60008460008151811061797e577f4e487b7100000000000000000000000000000000000000000000000000000000600052603260045260246000fd5b6020026020010151815260200190815260200160002060009054906101000a900473ffffffffffffffffffffffffffffffffffffffff16905060005b8351811015617ab7578173ffffffffffffffffffffffffffffffffffffffff16600e6000868481518110617a17577f4e487b7100000000000000000000000000000000000000000000000000000000600052603260045260246000fd5b6020026020010151815260200190815260200160002060009054906101000a900473ffffffffffffffffffffffffffffffffffffffff1673ffffffffffffffffffffffffffffffffffffffff1614617aa4576040517f08c379a0000000000000000000000000000000000000000000000000000000008152600401617a9b9061a5ae565b60405180910390fd5b8080617aaf9061acbe565b9150506179ba565b50600d60008273ffffffffffffffffffffffffffffffffffffffff1673ffffffffffffffffffffffffffffffffffffffff16815260200190815260200160002060009054906101000a900460ff1615617bdb578073ffffffffffffffffffffffffffffffffffffffff1663883da933868686866040518563ffffffff1660e01b8152600401617b49949392919061a00a565b602060405180830381600087803b158015617b6357600080fd5b505af1158015617b77573d6000803e3d6000fd5b505050506040513d601f19601f82011682018060405250810190617b9b9190618d8c565b617bda576040517f08c379a0000000000000000000000000000000000000000000000000000000008152600401617bd19061a64e565b60405180910390fd5b5b5050505050565b600080823b905060008111915050919050565b600073ffffffffffffffffffffffffffffffffffffffff168473ffffffffffffffffffffffffffffffffffffffff161415617c65576040517f08c379a0000000000000000000000000000000000000000000000000000000008152600401617c5c9061a76e565b60405180910390fd5b6000617c6f613e64565b9050617c9081600087617c8188617664565b617c8a88617664565b87616a86565b826004600086815260200190815260200160002060008773ffffffffffffffffffffffffffffffffffffffff1673ffffffffffffffffffffffffffffffffffffffff1681526020019081526020016000206000828254617cf0919061aa9a565b925050819055508473ffffffffffffffffffffffffffffffffffffffff16600073ffffffffffffffffffffffffffffffffffffffff168273ffffffffffffffffffffffffffffffffffffffff167fc3d58168c5ae7397731d063d5bbf3d657854427343f4c083240f7aacaa2d0f628787604051617d6e92919061a7c9565b60405180910390a4617d858160008787878761772a565b5050505050565b600073ffffffffffffffffffffffffffffffffffffffff168473ffffffffffffffffffffffffffffffffffffffff161415617dfc576040517f08c379a0000000000000000000000000000000000000000000000000000000008152600401617df39061a76e565b60405180910390fd5b8151835114617e40576040517f08c379a0000000000000000000000000000000000000000000000000000000008152600401617e379061a74e565b60405180910390fd5b6000617e4a613e64565b9050617e5b81600087878787616a86565b60005b8451811015617f6157838181518110617ea0577f4e487b7100000000000000000000000000000000000000000000000000000000600052603260045260246000fd5b602002602001015160046000878481518110617ee5577f4e487b7100000000000000000000000000000000000000000000000000000000600052603260045260246000fd5b6020026020010151815260200190815260200160002060008873ffffffffffffffffffffffffffffffffffffffff1673ffffffffffffffffffffffffffffffffffffffff1681526020019081526020016000206000828254617f47919061aa9a565b925050819055508080617f599061acbe565b915050617e5e565b508473ffffffffffffffffffffffffffffffffffffffff16600073ffffffffffffffffffffffffffffffffffffffff168273ffffffffffffffffffffffffffffffffffffffff167f4a39dc06d4c0dbc64b70af90fd698a233a518aa5d07e595d983b8c0526c8f7fb8787604051617fd992919061a2bf565b60405180910390a4617ff081600087878787616a9a565b5050505050565b8280546180039061ac8c565b90600052602060002090601f016020900481019282618025576000855561806c565b82601f1061803e57803560ff191683800117855561806c565b8280016001018555821561806c579182015b8281111561806b578235825591602001919060010190618050565b5b50905061807991906181f0565b5090565b82805482825590600052602060002090810192821561810c579160200282015b8281111561810b57823573ffffffffffffffffffffffffffffffffffffffff168260006101000a81548173ffffffffffffffffffffffffffffffffffffffff021916908373ffffffffffffffffffffffffffffffffffffffff1602179055509160200191906001019061809d565b5b50905061811991906181f0565b5090565b828054828255906000526020600020908101928215618159579160200282015b8281111561815857823582559160200191906001019061813d565b5b50905061816691906181f0565b5090565b8280546181769061ac8c565b90600052602060002090601f01602090048101928261819857600085556181df565b82601f106181b157805160ff19168380011785556181df565b828001600101855582156181df579182015b828111156181de5782518255916020019190600101906181c3565b5b5090506181ec91906181f0565b5090565b5b808211156182095760008160009055506001016181f1565b5090565b600061822061821b8461a87a565b61a849565b9050808382526020820190508285602086028201111561823f57600080fd5b60005b8581101561826f578161825588826183fc565b845260208401935060208301925050600181019050618242565b5050509392505050565b600061828c6182878461a8a6565b61a849565b9050808382526020820190508260005b858110156182cc57813585016182b2888261866a565b84526020840193506020830192505060018101905061829c565b5050509392505050565b60006182e96182e48461a8d2565b61a849565b9050808382526020820190508285602086028201111561830857600080fd5b60005b85811015618338578161831e88826186be565b84526020840193506020830192505060018101905061830b565b5050509392505050565b60006183556183508461a8fe565b61a849565b90508281526020810184848401111561836d57600080fd5b61837884828561ac4a565b509392505050565b600061839361838e8461a92e565b61a849565b9050828152602081018484840111156183ab57600080fd5b6183b684828561ac4a565b509392505050565b60006183d16183cc8461a92e565b61a849565b9050828152602081018484840111156183e957600080fd5b6183f484828561ac59565b509392505050565b60008135905061840b8161aec8565b92915050565b6000813590506184208161aedf565b92915050565b60008083601f84011261843857600080fd5b8235905067ffffffffffffffff81111561845157600080fd5b60208301915083602082028301111561846957600080fd5b9250929050565b600082601f83011261848157600080fd5b813561849184826020860161820d565b91505092915050565b60008083601f8401126184ac57600080fd5b8235905067ffffffffffffffff8111156184c557600080fd5b6020830191508360208202830111156184dd57600080fd5b9250929050565b60008083601f8401126184f657600080fd5b8235905067ffffffffffffffff81111561850f57600080fd5b60208301915083602082028301111561852757600080fd5b9250929050565b60008083601f84011261854057600080fd5b8235905067ffffffffffffffff81111561855957600080fd5b60208301915083602082028301111561857157600080fd5b9250929050565b600082601f83011261858957600080fd5b81356185998482602086016182d6565b91505092915050565b6000813590506185b18161aef6565b92915050565b6000815190506185c68161aef6565b92915050565b6000813590506185db8161af0d565b92915050565b6000815190506185f08161af0d565b92915050565b600082601f83011261860757600080fd5b8135618617848260208601618342565b91505092915050565b60008083601f84011261863257600080fd5b8235905067ffffffffffffffff81111561864b57600080fd5b60208301915083600182028301111561866357600080fd5b9250929050565b600082601f83011261867b57600080fd5b813561868b848260208601618380565b91505092915050565b600082601f8301126186a557600080fd5b81516186b58482602086016183be565b91505092915050565b6000813590506186cd8161af24565b92915050565b6000602082840312156186e557600080fd5b60006186f3848285016183fc565b91505092915050565b6000806040838503121561870f57600080fd5b600061871d858286016183fc565b925050602061872e858286016183fc565b9150509250929050565b600080600080600060a0868803121561875057600080fd5b600061875e888289016183fc565b955050602061876f888289016183fc565b945050604086013567ffffffffffffffff81111561878c57600080fd5b61879888828901618578565b935050606086013567ffffffffffffffff8111156187b557600080fd5b6187c188828901618578565b925050608086013567ffffffffffffffff8111156187de57600080fd5b6187ea888289016185f6565b9150509295509295909350565b600080600080600060a0868803121561880f57600080fd5b600061881d888289016183fc565b955050602061882e888289016183fc565b945050604061883f888289016186be565b9350506060618850888289016186be565b925050608086013567ffffffffffffffff81111561886d57600080fd5b618879888289016185f6565b9150509295509295909350565b60008060008060006060868803121561889e57600080fd5b60006188ac888289016183fc565b955050602086013567ffffffffffffffff8111156188c957600080fd5b6188d58882890161849a565b9450945050604086013567ffffffffffffffff8111156188f457600080fd5b6189008882890161852e565b92509250509295509295909350565b60008060006060848603121561892457600080fd5b6000618932868287016183fc565b935050602084013567ffffffffffffffff81111561894f57600080fd5b61895b86828701618578565b925050604084013567ffffffffffffffff81111561897857600080fd5b61898486828701618578565b9150509250925092565b600080604083850312156189a157600080fd5b60006189af858286016183fc565b92505060206189c0858286016185a2565b9150509250929050565b6000806000604084860312156189df57600080fd5b60006189ed868287016183fc565b935050602084013567ffffffffffffffff811115618a0a57600080fd5b618a1686828701618620565b92509250509250925092565b60008060008060608587031215618a3857600080fd5b6000618a46878288016183fc565b945050602085013567ffffffffffffffff811115618a6357600080fd5b618a6f87828801618620565b93509350506040618a82878288016185a2565b91505092959194509250565b60008060408385031215618aa157600080fd5b6000618aaf858286016183fc565b9250506020618ac0858286016186be565b9150509250929050565b60008060008060008060608789031215618ae357600080fd5b600087013567ffffffffffffffff811115618afd57600080fd5b618b0989828a01618426565b9650965050602087013567ffffffffffffffff811115618b2857600080fd5b618b3489828a0161852e565b9450945050604087013567ffffffffffffffff811115618b5357600080fd5b618b5f89828a016184e4565b92509250509295509295509295565b60008060008060008060608789031215618b8757600080fd5b600087013567ffffffffffffffff811115618ba157600080fd5b618bad89828a01618426565b9650965050602087013567ffffffffffffffff811115618bcc57600080fd5b618bd889828a0161852e565b9450945050604087013567ffffffffffffffff811115618bf757600080fd5b618c0389828a0161852e565b92509250509295509295509295565b60008060408385031215618c2557600080fd5b600083013567ffffffffffffffff811115618c3f57600080fd5b618c4b85828601618470565b925050602083013567ffffffffffffffff811115618c6857600080fd5b618c7485828601618578565b9150509250929050565b60008060008060408587031215618c9457600080fd5b600085013567ffffffffffffffff811115618cae57600080fd5b618cba8782880161849a565b9450945050602085013567ffffffffffffffff811115618cd957600080fd5b618ce58782880161852e565b925092505092959194509250565b600080600060408486031215618d0857600080fd5b600084013567ffffffffffffffff811115618d2257600080fd5b618d2e86828701618578565b935050602084013567ffffffffffffffff811115618d4b57600080fd5b618d57868287016184e4565b92509250509250925092565b600060208284031215618d7557600080fd5b6000618d83848285016185a2565b91505092915050565b600060208284031215618d9e57600080fd5b6000618dac848285016185b7565b91505092915050565b600060208284031215618dc757600080fd5b6000618dd5848285016185cc565b91505092915050565b600060208284031215618df057600080fd5b6000618dfe848285016185e1565b91505092915050565b60008060208385031215618e1a57600080fd5b600083013567ffffffffffffffff811115618e3457600080fd5b618e4085828601618620565b92509250509250929050565b600080600060408486031215618e6157600080fd5b600084013567ffffffffffffffff811115618e7b57600080fd5b618e8786828701618620565b93509350506020618e9a868287016185a2565b9150509250925092565b600060208284031215618eb657600080fd5b600082015167ffffffffffffffff811115618ed057600080fd5b618edc84828501618694565b91505092915050565b600060208284031215618ef757600080fd5b6000618f05848285016186be565b91505092915050565b600080600080600060608688031215618f2657600080fd5b6000618f34888289016186be565b955050602086013567ffffffffffffffff811115618f5157600080fd5b618f5d8882890161849a565b9450945050604086013567ffffffffffffffff811115618f7c57600080fd5b618f888882890161852e565b92509250509295509295909350565b600080600060408486031215618fac57600080fd5b6000618fba868287016186be565b935050602084013567ffffffffffffffff811115618fd757600080fd5b618fe386828701618620565b92509250509250925092565b6000806040838503121561900257600080fd5b6000619010858286016186be565b9250506020619021858286016186be565b9150509250929050565b60006190378383619073565b60208301905092915050565b600061904f8383619082565b60208301905092915050565b60006190678383619f72565b60208301905092915050565b61907c8161abc1565b82525050565b61908b8161abaf565b82525050565b61909a8161abaf565b82525050565b60006190ab8261a9ad565b6190b5818561aa18565b93506190c08361a95e565b8060005b838110156190f15781516190d88882619043565b97506190e38361a9e4565b9250506001810190506190c4565b5085935050505092915050565b600061910a838561aa29565b93506191158261a96e565b8060005b8581101561914e5761912b828461aa83565b619135888261902b565b97506191408361a9f1565b925050600181019050619119565b5085925050509392505050565b60006191668261a9b8565b619170818561aa29565b935061917b8361a978565b8060005b838110156191ac578151619193888261902b565b975061919e8361a9fe565b92505060018101905061917f565b5085935050505092915050565b60006191c5838561aa3a565b93507f07ffffffffffffffffffffffffffffffffffffffffffffffffffffffffffffff8311156191f457600080fd5b60208302925061920583858461ac4a565b82840190509392505050565b600061921c8261a9c3565b619226818561aa3a565b93506192318361a988565b8060005b83811015619262578151619249888261905b565b97506192548361aa0b565b925050600181019050619235565b5085935050505092915050565b6192788161abd3565b82525050565b6192878161abdf565b82525050565b60006192988261a9ce565b6192a2818561aa4b565b93506192b281856020860161ac59565b6192bb8161adf4565b840191505092915050565b60006192d18261a9ce565b6192db818561aa5c565b93506192eb81856020860161ac59565b80840191505092915050565b60006193028261a9d9565b61930c818561aa67565b935061931c81856020860161ac59565b6193258161adf4565b840191505092915050565b600061933b8261a9d9565b619345818561aa78565b935061935581856020860161ac59565b80840191505092915050565b6000815461936e8161ac8c565b619378818661aa78565b9450600182166000811461939357600181146193a4576193d7565b60ff198316865281860193506193d7565b6193ad8561a998565b60005b838110156193cf578154818901526001820191506020810190506193b0565b838801955050505b50505092915050565b60006193ed60348361aa67565b91507f455243313135353a207472616e7366657220746f206e6f6e204552433131353560008301527f526563656976657220696d706c656d656e7465720000000000000000000000006020830152604082019050919050565b600061945360288361aa67565b91507f455243313135353a204552433131353552656365697665722072656a6563746560008301527f6420746f6b656e730000000000000000000000000000000000000000000000006020830152604082019050919050565b60006194b960198361aa67565b91507f43616e6e6f7420626c61636b6c69737420796f757273656c66000000000000006000830152602082019050919050565b60006194f9600f8361aa67565b91507f496e76616c6964206164647265737300000000000000000000000000000000006000830152602082019050919050565b6000619539602b8361aa67565b91507f455243313135353a2062616c616e636520717565727920666f7220746865207a60008301527f65726f20616464726573730000000000000000000000000000000000000000006020830152604082019050919050565b600061959f60268361aa67565b91507f4f776e61626c653a206e6577206f776e657220697320746865207a65726f206160008301527f64647265737300000000000000000000000000000000000000000000000000006020830152604082019050919050565b600061960560248361aa67565b91507f455243313135353a206275726e20616d6f756e7420657863656564732062616c60008301527f616e6365000000000000000000000000000000000000000000000000000000006020830152604082019050919050565b600061966b60298361aa67565b91507f455243313135353a2063616c6c6572206973206e6f74206f776e6572206e6f7260008301527f20617070726f76656400000000000000000000000000000000000000000000006020830152604082019050919050565b60006196d160118361aa67565b91507f496e76616c696420657874656e73696f6e0000000000000000000000000000006000830152602082019050919050565b600061971160158361aa67565b91507f457874656e73696f6e20626c61636b6c697374656400000000000000000000006000830152602082019050919050565b6000619751600d8361aa67565b91507f496e76616c696420746f6b656e000000000000000000000000000000000000006000830152602082019050919050565b6000619791601c8361aa67565b91507f4d757374206265207265676973746572656420657874656e73696f6e000000006000830152602082019050919050565b60006197d160408361aa67565b91507f457874656e73696f6e206d75737420696d706c656d656e74204945524331313560008301527f3543726561746f72457874656e73696f6e417070726f76655472616e736665726020830152604082019050919050565b600061983760258361aa67565b91507f455243313135353a207472616e7366657220746f20746865207a65726f20616460008301527f64726573730000000000000000000000000000000000000000000000000000006020830152604082019050919050565b600061989d60328361aa67565b91507f455243313135353a207472616e736665722063616c6c6572206973206e6f742060008301527f6f776e6572206e6f7220617070726f76656400000000000000000000000000006020830152604082019050919050565b6000619903601c8361aa67565b91507f4d6f7265207468616e203120726f79616c7479207265636569766572000000006000830152602082019050919050565b600061994360238361aa67565b91507f455243313135353a206275726e2066726f6d20746865207a65726f206164647260008301527f65737300000000000000000000000000000000000000000000000000000000006020830152604082019050919050565b60006199a9602a8361aa67565b91507f455243313135353a20696e73756666696369656e742062616c616e636520666f60008301527f72207472616e73666572000000000000000000000000000000000000000000006020830152604082019050919050565b6000619a0f60258361aa67565b91507f43726561746f723a20457874656e73696f6e206d757374206265206120636f6e60008301527f74726163740000000000000000000000000000000000000000000000000000006020830152604082019050919050565b6000619a75601c8361aa67565b91507f4d69736d61746368656420746f6b656e206f726967696e61746f7273000000006000830152602082019050919050565b6000619ab560208361aa67565b91507f4f776e61626c653a2063616c6c6572206973206e6f7420746865206f776e65726000830152602082019050919050565b6000619af560168361aa67565b91507f4e6f20657874656e73696f6e20666f7220746f6b656e000000000000000000006000830152602082019050919050565b6000619b35600d8361aa67565b91507f496e76616c696420696e707574000000000000000000000000000000000000006000830152602082019050919050565b6000619b7560178361aa67565b91507f496e76616c696420746f74616c20726f79616c746965730000000000000000006000830152602082019050919050565b6000619bb5601a8361aa67565b91507f457874656e73696f6e20617070726f76616c206661696c7572650000000000006000830152602082019050919050565b6000619bf560208361aa67565b91507f43616c6c6572206973206e6f74206f776e6572206e6f7220617070726f7665646000830152602082019050919050565b6000619c3560248361aa67565b91507f41646d696e436f6e74726f6c3a204d757374206265206f776e6572206f72206160008301527f646d696e000000000000000000000000000000000000000000000000000000006020830152604082019050919050565b6000619c9b60298361aa67565b91507f4120746f6b656e20776173206e6f74206372656174656420627920746869732060008301527f657874656e73696f6e00000000000000000000000000000000000000000000006020830152604082019050919050565b6000619d0160108361aa67565b91507f43726561746f723a20496e76616c6964000000000000000000000000000000006000830152602082019050919050565b6000619d4160238361aa67565b91507f4120746f6b656e20776173206372656174656420627920616e20657874656e7360008301527f696f6e00000000000000000000000000000000000000000000000000000000006020830152604082019050919050565b6000619da760298361aa67565b91507f455243313135353a2073657474696e6720617070726f76616c2073746174757360008301527f20666f722073656c6600000000000000000000000000000000000000000000006020830152604082019050919050565b6000619e0d60298361aa67565b91507f455243313135353a206163636f756e747320616e6420696473206c656e67746860008301527f206d69736d6174636800000000000000000000000000000000000000000000006020830152604082019050919050565b6000619e7360288361aa67565b91507f455243313135353a2069647320616e6420616d6f756e7473206c656e6774682060008301527f6d69736d617463680000000000000000000000000000000000000000000000006020830152604082019050919050565b6000619ed960218361aa67565b91507f455243313135353a206d696e7420746f20746865207a65726f2061646472657360008301527f73000000000000000000000000000000000000000000000000000000000000006020830152604082019050919050565b6000619f3f601f8361aa67565b91507f5265656e7472616e637947756172643a207265656e7472616e742063616c6c006000830152602082019050919050565b619f7b8161ac2b565b82525050565b619f8a8161ac2b565b82525050565b6000619f9c82846192c6565b915081905092915050565b6000619fb38285619361565b9150619fbf8284619330565b91508190509392505050565b6000619fd78285619361565b9150619fe38284619361565b91508190509392505050565b600060208201905061a0046000830184619091565b92915050565b600060808201905061a01f6000830187619091565b61a02c6020830186619091565b818103604083015261a03e8185619211565b9050818103606083015261a0528184619211565b905095945050505050565b600060a08201905061a0726000830188619091565b61a07f6020830187619091565b818103604083015261a0918186619211565b9050818103606083015261a0a58185619211565b9050818103608083015261a0b9818461928d565b90509695505050505050565b600060a08201905061a0da6000830188619091565b61a0e76020830187619091565b61a0f46040830186619f81565b61a1016060830185619f81565b818103608083015261a113818461928d565b90509695505050505050565b600060808201905061a1346000830187619091565b818103602083015261a14681866190a0565b9050818103604083015261a15a8185619211565b9050818103606083015261a16e8184619211565b905095945050505050565b600060608201905061a18e6000830186619091565b818103602083015261a1a08185619211565b9050818103604083015261a1b48184619211565b9050949350505050565b600060408201905061a1d36000830185619091565b61a1e06020830184619f81565b9392505050565b6000602082019050818103600083015261a20181846190a0565b905092915050565b6000604082019050818103600083015261a2248186886190fe565b9050818103602083015261a2398184866191b9565b905095945050505050565b6000602082019050818103600083015261a25e818461915b565b905092915050565b6000604082019050818103600083015261a280818561915b565b9050818103602083015261a2948184619211565b90509392505050565b6000602082019050818103600083015261a2b78184619211565b905092915050565b6000604082019050818103600083015261a2d98185619211565b9050818103602083015261a2ed8184619211565b90509392505050565b600060208201905061a30b600083018461926f565b92915050565b600060208201905061a326600083018461927e565b92915050565b6000602082019050818103600083015261a34681846192f7565b905092915050565b6000602082019050818103600083015261a367816193e0565b9050919050565b6000602082019050818103600083015261a38781619446565b9050919050565b6000602082019050818103600083015261a3a7816194ac565b9050919050565b6000602082019050818103600083015261a3c7816194ec565b9050919050565b6000602082019050818103600083015261a3e78161952c565b9050919050565b6000602082019050818103600083015261a40781619592565b9050919050565b6000602082019050818103600083015261a427816195f8565b9050919050565b6000602082019050818103600083015261a4478161965e565b9050919050565b6000602082019050818103600083015261a467816196c4565b9050919050565b6000602082019050818103600083015261a48781619704565b9050919050565b6000602082019050818103600083015261a4a781619744565b9050919050565b6000602082019050818103600083015261a4c781619784565b9050919050565b6000602082019050818103600083015261a4e7816197c4565b9050919050565b6000602082019050818103600083015261a5078161982a565b9050919050565b6000602082019050818103600083015261a52781619890565b9050919050565b6000602082019050818103600083015261a547816198f6565b9050919050565b6000602082019050818103600083015261a56781619936565b9050919050565b6000602082019050818103600083015261a5878161999c565b9050919050565b6000602082019050818103600083015261a5a781619a02565b9050919050565b6000602082019050818103600083015261a5c781619a68565b9050919050565b6000602082019050818103600083015261a5e781619aa8565b9050919050565b6000602082019050818103600083015261a60781619ae8565b9050919050565b6000602082019050818103600083015261a62781619b28565b9050919050565b6000602082019050818103600083015261a64781619b68565b9050919050565b6000602082019050818103600083015261a66781619ba8565b9050919050565b6000602082019050818103600083015261a68781619be8565b9050919050565b6000602082019050818103600083015261a6a781619c28565b9050919050565b6000602082019050818103600083015261a6c781619c8e565b9050919050565b6000602082019050818103600083015261a6e781619cf4565b9050919050565b6000602082019050818103600083015261a70781619d34565b9050919050565b6000602082019050818103600083015261a72781619d9a565b9050919050565b6000602082019050818103600083015261a74781619e00565b9050919050565b6000602082019050818103600083015261a76781619e66565b9050919050565b6000602082019050818103600083015261a78781619ecc565b9050919050565b6000602082019050818103600083015261a7a781619f32565b9050919050565b600060208201905061a7c36000830184619f81565b92915050565b600060408201905061a7de6000830185619f81565b61a7eb6020830184619f81565b9392505050565b6000808335600160200384360303811261a80b57600080fd5b80840192508235915067ffffffffffffffff82111561a82957600080fd5b60208301925060018202360383131561a84157600080fd5b509250929050565b6000604051905081810181811067ffffffffffffffff8211171561a8705761a86f61adc5565b5b8060405250919050565b600067ffffffffffffffff82111561a8955761a89461adc5565b5b602082029050602081019050919050565b600067ffffffffffffffff82111561a8c15761a8c061adc5565b5b602082029050602081019050919050565b600067ffffffffffffffff82111561a8ed5761a8ec61adc5565b5b602082029050602081019050919050565b600067ffffffffffffffff82111561a9195761a91861adc5565b5b601f19601f8301169050602081019050919050565b600067ffffffffffffffff82111561a9495761a94861adc5565b5b601f19601f8301169050602081019050919050565b6000819050602082019050919050565b6000819050919050565b6000819050602082019050919050565b6000819050602082019050919050565b60008190508160005260206000209050919050565b600081519050919050565b600081519050919050565b600081519050919050565b600081519050919050565b600081519050919050565b6000602082019050919050565b6000602082019050919050565b6000602082019050919050565b6000602082019050919050565b600082825260208201905092915050565b600082825260208201905092915050565b600082825260208201905092915050565b600082825260208201905092915050565b600081905092915050565b600082825260208201905092915050565b600081905092915050565b600061aa926020840184618411565b905092915050565b600061aaa58261ac2b565b915061aab08361ac2b565b9250827fffffffffffffffffffffffffffffffffffffffffffffffffffffffffffffffff0382111561aae55761aae461ad38565b5b828201905092915050565b600061aafb8261ac2b565b915061ab068361ac2b565b92508261ab165761ab1561ad67565b5b828204905092915050565b600061ab2c8261ac2b565b915061ab378361ac2b565b9250817fffffffffffffffffffffffffffffffffffffffffffffffffffffffffffffffff048311821515161561ab705761ab6f61ad38565b5b828202905092915050565b600061ab868261ac2b565b915061ab918361ac2b565b92508282101561aba45761aba361ad38565b5b828203905092915050565b600061abba8261ac0b565b9050919050565b600061abcc8261ac0b565b9050919050565b60008115159050919050565b60007fffffffff0000000000000000000000000000000000000000000000000000000082169050919050565b600073ffffffffffffffffffffffffffffffffffffffff82169050919050565b6000819050919050565b600061ac42368484618279565b905092915050565b82818337600083830152505050565b60005b8381101561ac7757808201518184015260208101905061ac5c565b8381111561ac86576000848401525b50505050565b6000600282049050600182168061aca457607f821691505b6020821081141561acb85761acb761ad96565b5b50919050565b600061acc98261ac2b565b91507fffffffffffffffffffffffffffffffffffffffffffffffffffffffffffffffff82141561acfc5761acfb61ad38565b5b600182019050919050565b600061ad128261ac2b565b915061ad1d8361ac2b565b92508261ad2d5761ad2c61ad67565b5b828206905092915050565b7f4e487b7100000000000000000000000000000000000000000000000000000000600052601160045260246000fd5b7f4e487b7100000000000000000000000000000000000000000000000000000000600052601260045260246000fd5b7f4e487b7100000000000000000000000000000000000000000000000000000000600052602260045260246000fd5b7f4e487b7100000000000000000000000000000000000000000000000000000000600052604160045260246000fd5b6000601f19601f8301169050919050565b60008160e01c9050919050565b600060443d101561ae225761aec5565b60046000803e61ae3360005161ae05565b6308c379a0811461ae44575061aec5565b60405160043d036004823e80513d602482011167ffffffffffffffff8211171561ae705750505061aec5565b808201805167ffffffffffffffff81111561ae8f57505050505061aec5565b8060208301013d850181111561aeaa5750505050505061aec5565b61aeb38261adf4565b60208401016040528296505050505050505b90565b61aed18161abaf565b811461aedc57600080fd5b50565b61aee88161abc1565b811461aef357600080fd5b50565b61aeff8161abd3565b811461af0a57600080fd5b50565b61af168161abdf565b811461af2157600080fd5b50565b61af2d8161ac2b565b811461af3857600080fd5b5056fea2646970667358221220d4bc2662fffaaa457c9dd2b05e197f264fad5749c06358f40ca07ffbd072547964736f6c63430008000033",
  "linkReferences": {},
  "deployedLinkReferences": {}
}